:020000040002F8
:1070000028930120C1730200C9730200CB730200F0
:10701000CD730200CF730200D173020000000000A4
:10702000000000000000000000000000D373020018
:10703000D573020000000000D7730200D97302006C
:10704000397D0200DB730200B5800200117E020070
:10705000217E0200DB730200C1750200DB730200B7
:10706000DB73020065800200DB730200DB73020049
:10707000DB730200DB730200DB730200DB730200D0
:10708000DB730200A17D0200DB730200DB730200F0
:10709000DB730200DB730200857E0200DB730200FB
:1070A000DB730200DB730200DB730200DB730200A0
:1070B000917D0200DB730200000000000000000070
:1070C000DB730200DB730200DB730200317E02001F
:1070D000DB730200DB730200DB730200DB73020070
:1070E000DB730200DB730200DB73020000000000B0
:1070F00000000000DB73020000000000DB730200F0
:10710000000000000000000000000000000000007F
:10711000000000000000000000000000000000006F
:10712000000000000000000000000000000000005F
:10713000000000000000000000000000000000004F
:10714000000000000000000000000000000000003F
:10715000000000000000000000000000000000002F
:10716000000000000000000000000000000000001F
:10717000000000000000000000000000000000000F
:1071800000000000000000000000000000000000FF
:1071900000000000000000000000000000000000EF
:1071A00000000000000000000000000000000000DF
:1071B00000000000000000000000000000000000CF
:1071C00000000000000000000000000000000000BF
:1071D00000000000000000000000000000000000AF
:1071E000000000000000000000000000000000009F
:1071F000000000000000000000000000000000008F
:10720000DFF80CD000F076F90048004799A402009E
:107210002893012030B450E8012F93B2C48923444D
:107220008489A34228BF1B1B0489A34202BFBFF36A
:107230002F8F002007E0C3EA020340E80134002C4E
:10724000E9D14FF001000A6030BC704750E8012FCF
:10725000C2EA024240E801210029F7D1704730B468
:1072600050E8022F1FFAA2F3C488A34202BFBFF363
:107270002F8F00200DE0C48923448489A34228BFB6
:107280001B1BC2EA034340E80234002CE8D14FF054
:1072900001000A6030BC704750E8022FC2EA224267
:1072A00040E802210029F7D17047034653E8022F36
:1072B000D988B2EB324F4FF0000017BF92B241EACB
:1072C000014142EA014104E05A68B2EB324F08BF83
:1072D000012043E80212002AE8D1704730B4044686
:1072E00054E8000F0D4644E80053002BF8D1156018
:1072F00030BC704730B4044654E8000F40EA010542
:1073000044E80053002BF7D1156030BC704730B40F
:10731000044654E8000F00EA010544E80053002B3E
:10732000F7D1156030BC704730B4044654E8000F04
:1073300080EA010544E80053002BF7D1156030BC0A
:10734000704730B4044654E8000F00EB010544E8F0
:107350000053002BF7D1156030BC704730B40446A1
:1073600054E8000FA0EB010544E80053002BF7D1CF
:10737000156030BC704770B404464FF0000054E80C
:10738000006F0D68AE4207BF44E80023012044E8C7
:1073900000630E60002B1CBF0020F0E770BC70473C
:1073A00030B4044654E8000F88422CBF451A054605
:1073B00044E80053002BF5D1156030BC7047000045
:1073C0000648804706480047FEE7FEE7FEE7FEE77F
:1073D000FEE7FEE7FEE7FEE7FEE7FEE7897E020046
:1073E000017202002DE9F05F0546002092469B469F
:1073F00088460646814640241BE0284641464746CB
:10740000224600F067F853465A46C01A914110D3FD
:1074100011461846224600F016F82D1A67EB0108AF
:107420004F4622460120002100F00DF817EB00091D
:107430004E41201EA4F10104DFDC484631462A46B5
:107440004346BDE8F09F202A04DB203A00FA02F10F
:10745000002070479140C2F1200320FA03F3194342
:107460009040704700487047CCE4020040EA0103B6
:107470009B0703D009E008C9121F08C0042AFAD2EA
:1074800003E011F8013B00F8013B521EF9D27047AE
:10749000D2B201E000F8012B491EFBD27047002256
:1074A000F6E710B513460A4604461946FFF7F0FF03
:1074B000204610BD421C10F8011B0029FBD1801A88
:1074C0007047034611F8012B00F8012B002AF9D16F
:1074D00018467047202A04DB203A21FA02F00021E6
:1074E000704721FA02F3D040C2F1200291400843D4
:1074F00019467047064C074D06E0E06840F001036E
:1075000094E8070098471034AC42F6D3FFF77CFEAE
:1075100064EC020084EC020070B58C1810F8015B7A
:1075200015F0070301D110F8013B2A1106D110F81C
:10753000012B03E010F8016B01F8016B5B1EF9D120
:107540002B0705D40023521E0DD401F8013BFAE7A6
:1075500010F8013BCB1A921C03E013F8015B01F811
:10756000015B521EF9D5A142D8D3002070BD2DE990
:10757000F04105460F460068A968164608400C1AF7
:10758000641CB44200D91446E968224608443946CE
:10759000FFF76CFF321B3919E868FFF767FF2868AF
:1075A00030442860BDE8F08110B5531E1A4201D066
:1075B000AFF30080002202604260C0E9023110BDDA
:1075C0002DE9FC410025DFF8948000954FF480768A
:1075D00001242F460195304603F0B8FE38B1D8F8A3
:1075E0000403204203D0304603F0A6FE2543361D97
:1075F00064007F1CB6B2082FEDD34FF4BE74204652
:1076000003F0A4FE48B1204603F096FE45F0004585
:107610006A460221002003F0C1FD15F0FF0F16D0CD
:10762000012600242E420ED008EB8401D1F810056B
:10763000D1F81015C0F30520094AC1F3014152F8F1
:10764000242002B190477600641C082CEAD3002D58
:1076500002DA684605F0F0FABDE8FC8100600040FF
:10766000686901202DE9F043002B01DD1D4601E092
:10767000C3F1000504D0B5FA85F4C4F1200401E09B
:107680004FF0000402EB420606EBC2024F4E4FF0F1
:10769000010806EB820656F824704D4E3244165D02
:1076A0004268C6F1200C9146ACEB020C08FA06F2D7
:1076B000A2F1010202EA0702076802FA0CF242EAAA
:1076C0000702026009EB06024FF0000942601DE06C
:1076D0000268D1E902C74FEA12660A68FF2E02EA81
:1076E0000C0C02F101020A6007F80C6008D1D1E924
:1076F00002C70A6802EA0C0C521C0A6007F80C90D8
:107700000268120202604268083A4260082ADFDA20
:10771000002B31D0C4F1200308FA04F8A3EB0203D4
:10772000A8F101082ADA28EA050808FA03F803682C
:10773000224448EA0308C0E900821BE00268D1E95C
:1077400002544FEA12630A68FF2B02EA050502F1B0
:1077500001020A60635507D1D1E902450A68144065
:10776000521C0A6005F80490026812020260426826
:10777000083A4260082AE1DABDE8F08308EA050821
:1077800008FA03F80368224448EA0308C0E90082C3
:1077900018E00268D1E902450B68120E1C405B1C20
:1077A0000B602A55FF2A07D1D1E902350A68134038
:1077B000521C0A6005F803900268120202604268D7
:1077C000083A4260082AE4DAD6E7000070DD0200D9
:1077D00030E002002DE9F043002A01DD144601E00B
:1077E000C2F1000404D0B4FA84F3C3F1200301E031
:1077F0004FF000034F4E4F4D06F130064FF0010899
:10780000F75C55F8235008FA07FCACF1010C05EAC7
:107810000C05C7F1200C47684FF00009ACEB070CD2
:1078200005FA0CF5D0F800C045EA0C050560F55CDA
:107830003D4445601DE00568D1E902C74FEA156681
:107840000D68FF2E05EA0C0C05F101050D6007F827
:107850000C6008D1D1E902C70D6805EA0C0C6D1C5B
:107860000D6007F80C9005682D0205604568083D1D
:107870004560082DDFDA002A33D000BF4268C3F12B
:10788000200508FA03F8A5EB0205A8F101082ADA99
:1078900028EA0408046808FA05F848EA04081A44C3
:1078A000C0E900821BE00268D1E902544FEA12638A
:1078B0000A68FF2B02EA050502F101020A6063551E
:1078C00007D1D1E902350A681340521C0A6005F855
:1078D00003900268120202604268083A4260082A75
:1078E000E1DABDE8F08308EA0408046808FA05F85C
:1078F00048EA04081A44C0E9008218E00268D1E9A5
:107900000245130E0A681440521C0A602B55FF2BC7
:1079100007D1D1E902340A681340521C0A6004F806
:1079200003900268120202604268083A4260082A24
:10793000E4DAD6E734DD02002DE9F04F4FF000081D
:10794000B7B004461546C146404624AB0A5C82F0F7
:1079500080021A54401C4028F8DB6946184600F0A3
:10796000DDF86946204600F0C7F9BDF90060A0685F
:107970002946321A04F198003590FFF72BFFA660D4
:1079800040483F266946825D31F812200AB9761ECA
:10799000F9D501278B4682461DE000BF1AF8071073
:1079A0003BF9110008B1C14607E008F10108B8F140
:1079B000100F06DB4FF00F0900204FF00008219058
:1079C00002E0B8F1000F05D14A462946219B3598BF
:1079D000FFF748FE7F1CB742E0DD00231A46294628
:1079E0003598FFF73FFED4F89C00414201F00701B3
:1079F00008440022C4F89C001DE000BFD5E902360F
:107A00002968D4F898000B40491C000E2960F054F6
:107A1000FF2806D1D5E9021328680140401C2860E0
:107A20005A54D4F898000002C4F89800D4F89C0086
:107A30000838C4F89C000828E0DA207BC04380079F
:107A400019D1A260D5E902132868FF220140401C29
:107A500028605A54217CD5E902232868491C024039
:107A6000401C286099542069FE21401C90FBF1F2D3
:107A700001FB12002061E068401CE06037B0BDE807
:107A8000F08F000020E1020030B5D0F89C20534276
:107A900003F0070302EB0302C0F89C20082A1CDB5A
:107AA000D0F89820D1E902450B68120E1C405B1CEF
:107AB0000B602A55FF2A07D1D1E902350A68002454
:107AC0001340521C0A60EC54D0F898201202C0F8FF
:107AD0009820D0F89C20083ADEE730BD1FB50C4650
:107AE000017D00914FF08041019141680291006851
:107AF0000390042202A92046FFF739FD042203A9BE
:107B00002046FFF734FD042269462046FFF72FFD8B
:107B1000042201A92046FFF72AFD1FBD2DE9F04FE1
:107B20008B46002310F9072B10F9065910F9017B39
:107B3000541990F90460521B10F902CBBD19A7EB40
:107B4000060990F9017010F9018C0CEB0706ACEBFB
:107B5000070A10F904CB08EB0C07A8EB0C0804EBA0
:107B6000070CE41BAF19AD1B0CEB070621F8086BE3
:107B7000ACEB070621F8086B2544B52615FB06F586
:107B80002D126619641B21F80C6C21F8044C08EBCB
:107B90000A0409EB02050AEB0907661B4FF0620CA9
:107BA00016FB0CF64FF08B0C14FB0CF4344424122F
:107BB0004FF0A70C15FB0CF506EB45052D12B5266D
:107BC00017FB06F63712D619D21B171921F8067CB7
:107BD000121B21F80A2C721921F80E2C721B083383
:107BE00021F8022C402B9DDB5846002330F9704BC6
:107BF0005B1CB0F9001030F9606C621830F9105C51
:107C0000611A741930F950CC30F9207C751B0CEBDB
:107C10000706ACEB070730F940CC30F930AC04EB89
:107C200006080CEB0A09ACEB0A0A02EB090CA41BD0
:107C30000CEB080620F8706CACEB0806A2EB09020E
:107C400020F8306C1444B52674432412161920F819
:107C5000506C121B20F8102C7E190AEB07020D4401
:107C6000541B62277C438B2702FB0742A7277D43D7
:107C700004EB45042512B524664334120E19121282
:107C8000091B8C1820F8204C891A20F8401C711907
:107C900020F8601C711B20F86E19082BA6DBBDE8CC
:107CA000F08F000070B5C0E9001200218160C16052
:107CB0000161C0F89C10C0F898100E4A03754FF48B
:107CC0008034012B05D0022B0ED0555C032B02D142
:107CD0000DE0555C6D00B4FBF5F500EB4106491C69
:107CE000F5824029EDDB70BD555CAD00F3E7ED009A
:107CF000F1E70000E0E0020030B50E4D002200BFC9
:107D0000AC5C31F912306408002B07DAE31A00EB9F
:107D10004204E48A63431B145B4205E0234400EB06
:107D20004204E48A63431B1421F81230521C402A97
:107D3000E6DB30BDE0E0020070B54FF480763046FF
:107D400003F036F8114CB50560B1304603F037F852
:107D50000120C5F80803607920B90120607121680D
:107D6000002088474FF48276304603F021F800283F
:107D70000AD0304603F023F80220C5F80803216832
:107D8000BDE870400120084770BD000008340020A5
:107D90000149024802F07FBA1834002000C00140B7
:107DA00002490248091F0968006808476834002032
:107DB00000F086B970B50E46144900EB400001EBA7
:107DC000C0051446E86A183520B101280FD00228F2
:107DD00005D113E0284600F0A7F9A04201D2002403
:107DE00011E022463146284600F0D6F90BE028463D
:107DF00000F09AF9A042F4D20446F2E73146284650
:107E000000F09DF90446204670BD0000A0700120DE
:107E10000149024805F0C2BBF8690120003000406A
:107E200002494FF0402005F0DFB90000346A01201C
:107E3000F8B51248124E04464FF48C7104F069F8FC
:107E400000281AD00025C4F81851D4F81801009061
:107E5000F07F3446FF2806D0A17F11B103F0C0F9AE
:107E600001E003F042FA65772572D4E9002101B000
:107E700004F10800BDE8F0401047F8BD00300240B2
:107E8000D469012003F0BEBF30B54FF0805200230B
:107E9000D2E94C10082906D1CC06C4F80C31C4F83C
:107EA0001031624C2360082955D1614B1B68614C2D
:107EB00023605F4B1B1D1B68241D23605C4B083334
:107EC0001B68241D23605A4B0C331B68241D236040
:107ED000574B10331B68241D2360554B14331B680C
:107EE000241D2360524B18331B68524C20342360EE
:107EF0004F4B1C331B68241D23604D4B20331B68E4
:107F0000241D23604A4B24331B68241D2360484BE7
:107F100028331B68241D2360454B2C331B68241D0C
:107F20002360434B30331B68424C40342360404B4A
:107F300034331B68241D23603D4B38331B68241DDC
:107F400023603B4B3C331B68241D2360384B40337C
:107F50001B68241D2360082904D1030002D1374C7B
:107F6000354B2360082904D1030002D1344CFB2394
:107F70002360082908D1030006D1324B92F85852E9
:107F80001C6865F303041C60082904D1030002D1B6
:107F90002D4C8B012360082906D12C480168C907A4
:107FA00002D06FF0010101602948016841F47001BD
:107FB0000160BFF34F8FBFF36F8FD2E94C104FF0CA
:107FC0001022082906D1032804D9D2F8080217493B
:107FD00020310860D2F80002002803DBD2F8040246
:107FE00000281FDA012004F0A7FC1221C2F80012B9
:107FF00018480368002BFCD0C2F80412016800295D
:10800000FCD0002004F098FCBFF34F8F10487C3860
:108010000168114A01F4E06111430160BFF34F8F21
:1080200000BFFDE70E490D48086030BD380500402F
:108030000404001020C50040488103008C56004015
:1080400018F50040E40E0040409602400004004055
:1080500088ED00E000E401400400FA050090D00340
:10806000DC3400202DE9F047104E042700244FF4A3
:10807000A0784FF4803900BF08EB840509FA04F0BA
:10808000715961B1D6F80413014208D0294630462F
:1080900003F076FF0648D0E9002128469047641C8B
:1080A000E4B2BC42E8D3BDE8F08700000090004095
:1080B000506A012001480068004700001034002089
:1080C00010B5124C02202061606111A0A06104F182
:1080D0007800E0614FF4007020620020A0626062CE
:1080E0000BA1A164E06204F51E71E1641021A0659A
:1080F000C4E91410E06509A1E01DFFF7E2F908A149
:108100002046FFF7DEF92020A07110BDA0700120ED
:108110005465726D696E616C000000005254540029
:1081200053454747455200000269C1688A4203D857
:108130008068401A104400E0501A401E70472DE934
:10814000F047C4681746894606464FF00008306974
:10815000A04201D9051B02E0B168201A0D1AB068CF
:108160006D1E001BA84200D80546BD4200D33D4607
:1081700070682A4620444946FFF778F9B0687F1BAB
:108180002C44A844A944A04200D10024F460002F4C
:10819000DDD14046BDE8F0872DE9F0410446884630
:1081A000D4E90207C51BE168606816460844B54279
:1081B00006D94146FFF75AF9B819E060BDE8F081E9
:1081C0002A464146FFF752F9761B08EB0501324675
:1081D0006068FFF74BF9E660F0E702E008C8121F9D
:1081E00008C1002AFAD170477047002001E001C1A0
:1081F000121F002AFBD170470121202803DA814099
:108200000548014003E0402802DA2038814009B1E6
:108210000120704700207047FC06FFBD90F8240045
:10822000012801D01F207047EE20704710B50122B1
:108230000221002001F00AF808B1072810D1072216
:108240000221012001F002F808B1072808D100211D
:108250000A22084600F0FAFF08B1072800D10020E2
:1082600010BD000072B603F0F5FA00BF03F03EF94E
:108270000028FBD111481249401AC408012000EB24
:10828000044010A103F04EFA11480068C00700D066
:1082900000BE022000EB04400EA103F043FABFF33E
:1082A0004F8F0B48E43801680E4A01F4E061114336
:1082B0000160BFF34F8F00BFFDE7000024ED020017
:1082C00094EC0200466174616C206572726F7200FA
:1082D000F0ED00E053797374656D20726573657419
:1082E000000000000400FA050EB500210091CDE960
:1082F00001106A4644F20100FFF7B4FF0EBD000012
:10830000014801F092BB00004834002010B55AB17A
:1083100000684FF0FF3401294261C0E9024400D0F7
:1083200000210161002010BD072010BD38B51148A3
:1083300008235822416800910F49006802F019FB98
:10834000002815D10D4A69460D4801F073FB040061
:108350000ED101210A4801F0E8FB0123094A194620
:10836000074801F03AFB0649012008390870204609
:1083700038BD0000E8E10200786A012005CE020065
:1083800048340020FFFF7F00F8B50446002617465A
:108390000D468DF80060684600F042F8D4E902010D
:1083A000C04370EA010005D09DF8000000F05CF8C1
:1083B0000020F8BD01F000FD40197141C4E902013F
:1083C0009DF8000000F050F8A761206900B1256118
:1083D0002146BDE8F840002005F052B838B5044603
:1083E00000208DF80000684600F01AF8D4E9020178
:1083F000C04370EA01000DD04FF0FF30C4E9020025
:108400009DF8000000F030F82146BDE8384001201A
:1084100005F036B89DF8000000F026F8002038BDC1
:1084200030B5EFF3108172B60D4A9468012324B180
:108430000370002900D162B630BD93604FF0E02395
:10844000D3F88051074C25401560C3F88041D3F81C
:10845000844154605A17C3F8842100220270E8E76F
:10846000D06A0120FC06FFBD0B498A68002A11D0A2
:1084700000280FD1EFF3108072B60B684FF0E022A6
:10848000C2F800314B68C2F8043100228A6000282B
:1084900000D162B670470000D06A0120400C01D0C4
:1084A000002070470120704770B51500044609D0C0
:1084B0000020286034B1206820B1A079800703D063
:1084C000072070BD0E2070BD084600F0FDFAC0B256
:1084D000142804D02179814203D8042070BD0520DE
:1084E00070BDE288216800FB02102860002070BD8A
:1084F0002DE9FC47002517880646158090F82D00C9
:108500001446894630B13A462146484600F0F0FA12
:10851000051E09D1B0784FF00C0A18B32088C84660
:10852000001DB84202D95046BDE8FC87684679DF95
:108530000028F9D12088032108F80010208819218B
:10854000401C80B2208008F800102088401C80B2B7
:10855000208000EB0801BDF8000005F059FA2188E1
:1085600008442080F0780222C8B1218896F90330AF
:1085700001F1030C4846BC45D5D8425421884FF040
:10858000010C491C89B2218000F801C02188491CD6
:1085900089B2218009F801302088401C2080706851
:1085A000B8B1218890F9003001F1030C4846BC4570
:1085B000B9D8425421880A22491C89B221804254E8
:1085C0002188491C89B2218009F801302088401C8B
:1085D0002080308950B1CDE900474B460622022168
:1085E00006F1080005F0C6FA051E9DD1308A50B18B
:1085F000CDE900474B460722032106F1100005F0A4
:10860000B9FA051E90D1308B50B1CDE900474B46E9
:108610001522142106F1180005F0ACFA051E83D1CD
:10862000306A30B13B462246494601F0F0F8051E5B
:10863000DBD1706A30B13B462246494602F0BCF8B5
:10864000051ED2D196F82C0038B13B462246494649
:10865000304604F00BFD051EC7D1307838B13B46DB
:1086600022464946304602F031F9051EBDD1284662
:108670005AE718B504460020ADF8000013466A46D4
:10868000204600F006F8002802D0BDF80000204483
:1086900018BD70B5E0B1DAB1002402E0045D2C44ED
:1086A000A4B2651C8D4206D21688A642F6D80619D9
:1086B00076789E42F2D18C420AD2A31C005D9BB216
:1086C00000B1401E0004000C02D01C188C4201D9DD
:1086D000002070BD138070BD80F8301070472DE908
:1086E000F0410D00044606D02CB195F87A00002622
:1086F000012803D006E00E20BDE8F08195F898002F
:10870000012821D04FF00108A6702C2205F1780134
:10871000201DFEF7ABFE84F83060D5F8A40060633E
:10872000D5F8A800A0634FF6FF70A4F8240404F560
:108730008260C4F82004C4F82664A4F82A6484F88B
:108740002C64207810B104E00720D5E7FF2084F8DE
:10875000540004F155072046C4F81074FFF75EFD7D
:10876000A4F8140404F2144239462846FFF7C0FE68
:108770000028C1D104F23120C4F818042046FFF7C4
:108780004DFDA4F81C0404F21C4205F13C00D4F891
:108790001814FFF7ADFE0028AED184F85180208B6D
:1087A000A4F8480084F83C80266484F8506060692E
:1087B00000216064454604F13C02781E72DF002807
:1087C0009AD1257098E710B50288102A1BD0112A7B
:1087D00020D0262A1DD1007A0C46012801D002287B
:1087E00017D1A0780521401CB0FBF1F201FB12016A
:1087F000204600F01DF800280BD0A16B002908D0FE
:10880000BDE810400847C27B012A02D18088A1F848
:10881000240410BD0C46002184F82E148088B4F87E
:1088200024148842F5D120790028F2D10121DFE714
:108830002DE9F05F044600780F4698B1A770002537
:10884000C4F82654A4F82A5484F82C54A07901269C
:1088500008B1012F09D0E07980B1012F05D0022F96
:1088600003D00BE00820BDE8F09F616B21B184F8D4
:108870002D640820884701E084F82D5404F2274134
:1088800000200A5C0AB1304603E0401C0628F8D3F9
:1088900000204FF002084FF0030B012F06D0022FEB
:1088A0000CD0032F0FD0042F15D110E0A17929B1DE
:1088B00094F8241011B908B130460DE0E17911B1F6
:1088C00008B1404608E0207A08B1584604E0607AD2
:1088D00008B1042000E02846A070616B41B1032874
:1088E00001D0042804D1607910B194F82E0498B115
:1088F00084F82F5404F13C0018210746FEF7CFFD01
:1089000084F83C6004F12C0004F064F958B194F848
:108910002C0084F8510008E084F8305484F82F6467
:1089200007208847E6E784F8516094F8240058B19E
:1089300004F1280004F04EF920B194F8280084F8DE
:10894000520001E084F8526084F85050A27804F29A
:10895000264104F582694FF0060A052A64D2DFE851
:1089600002F07C030F22420084F83160C4F82054E6
:10897000C4E9101584F83C808020A4F8480055E034
:1089800084F8318094F82420384612B1072202700E
:1089900001E080F800B0228A8281C4F8205441604E
:1089A000E168B96042E06069B860208BB88194F8F2
:1089B00024003D460028204602D084F83CA001E077
:1089C00084F83C6005F0B8F850B185F814800421B3
:1089D000204601F095F938BB052184F8311021E0DB
:1089E00084F831B01EE0E069B860208CB88194F85A
:1089F00024003D460028204602D084F83CA001E037
:108A000084F83C6005F098F848B185F8148004219A
:108A1000204601F075F938B984F831A002E004204D
:108A200084F83100C4F82094A07878B13A4604F173
:108A30005400D4F8201472DF00287FF414AF94F8A7
:108A4000301094F8540073DF0028F6D1616B11B137
:108A500094F831008847002005E784F83150F5E7A5
:108A600070B5040012D001461C221448FEF7FEFC2B
:108A70001248134D0560206850B17ADF002806D1F6
:108A80002068016829604068686005E00E2070BDBC
:108A90000B487BDF0028FAD108484FF6FF711438E5
:108AA000084A20F8041B0549343901600021FFF70A
:108AB0002DFC0028EBD0032070BD0000BC68012015
:108AC00000340020D1DA020010B5044600F006F8A8
:108AD00008B1204610BD142010BD0000142801D399
:108AE000002070470146014801F08DBFDC6801207D
:108AF0007CB5054608880C460930904201D90C2007
:108B00007CBD68466DDF0028FAD1218808206854B2
:108B100020881B21401C80B2208029542088401CC2
:108B200080B220802844DDF801100160BDF80510F6
:108B300081802088801D80B220809DF80010490827
:108B400000D0012129542088401C208000207CBDB9
:108B50002DE9FC41384C0188364FB4F802C0054677
:108B6000212957D01CDC354A354B4FF00300A3EBCD
:108B700002024FEAD20600EB064010291AD0112952
:108B80003FD0122938D0132908D100231A46852155
:108B900060467FDF002801D0FFF7A6FBBDE8FC811F
:108BA0003B2943D052293BD05629F7D18088132145
:108BB00076DFEFE723A102F0B5FD072000F068FBA8
:108BC00008B1FFF791FBA9886180214802F078F88D
:108BD00008B1FFF789FB4FF0010E84F800E0386818
:108BE0000090A88869468FDF0200D7D00EEB0640C0
:108BF00018A102F09BFDD1E7A868A061E868E061D8
:108C0000CCE720A102F08EFD4FF6FF7060800020BF
:108C10002070C3E778680190A88801A98FDFB9E7C1
:108C200000231A4619466046B1DFB3E78088132156
:108C300076DFAFE790DC0200E031002094EC020028
:108C400024ED0200436F6E6E65637465640000007E
:108C5000E837002073645F626C655F6761705F6313
:108C60006F6E6E5F706172616D5F75706461746567
:108C70002829206661696C65643A20307825782E51
:108C800000000000446973636F6E6E656374656411
:108C90000000000010B51A4C0188606810290ED041
:108CA00011292BD1401E606028D1FFF7BFFA0028A0
:108CB00024D02168002921D0BDE810400847D0B950
:108CC00000210122084600F0C1FA08B107280FD19F
:108CD00007220221012000F0B9FA08B1072807D1C4
:108CE00004220221002000F0B1FA20B1072802D0AE
:108CF000216801B188476068401C606010BD0000B9
:108D0000F83300202DE9F04701883B4E40F2F3197B
:108D10004FF6FF7510291BD011293ED0122954D0CF
:108D2000502946D1C188F289841D914241D161897F
:108D300002293ED18688304601F036FA050038D047
:108D400004F10C0000F0C2F9A8B3294630464EE009
:108D5000C17B8788044601292BD1A846284601F00B
:108D600023FA050017D02F8000202872234843469D
:108D70004A460168C5F80A104068C5F80E0004F1BB
:108D8000100105F10A0001F0E6FA6872F089002886
:108D90000FD129462AE0042013E0808801F004FA6C
:108DA000040006D06068FFF719FB08B104F02EF943
:108DB0002580BDE8F087FFE76868FFF70FFB002814
:108DC000F7D0BDE8F04704F021B987880646384659
:108DD00001F0EAF90400ECD02B464A4606F10801FE
:108DE00004F10A0001F0B7FA607221463846BDE886
:108DF000F04700F053BD0000BC68012000340020A3
:108E00002DE9F04F044686880188424897B0834692
:108E100010290CD0112950D0103019296AD01A29E4
:108E200074D1217A0C09042C4DD301224CE0394D28
:108E3000083DA868C0430B9069680BA801F004FEC8
:108E40000B990CA800F0C4FC2C220CA96846FEF774
:108E50000DFB0027E946A84610E000BF09EB4700DC
:108E60005FF00005B0F804A008EB85005146001D36
:108E700001F0BEFD6D1C1E2DF6D37F1C0098B8427C
:108E8000ECD8142E05D317B00420BDE8F04FFFF73F
:108E90002BBA3146584601F0C1FD314608F10400B5
:108EA00001F0BCFDE07B022830D117B03146BDE8AF
:108EB000F04F1848001D01F0B1BD17B03146BDE8B4
:108EC000F04F01F095BD0022314600F014FF032C55
:108ED00001D3012200E000220E4831460C3000F0A0
:108EE0000AFF022C01D3012200E00022094831468A
:108EF000083006E0217A002908D1617AC1F3C00266
:108F0000314617B0BDE8F04F00F0F5BE17B0BDE830
:108F1000F08F0000E068012070B5334D04008EB082
:108F20002DCD08AE86E82D005BD0E9B30868A061BE
:108F3000214608A862DF002851D1207801258DF84C
:108F40003200ADF83050A21C0CA92846A8DF00283A
:108F500045D120216846FEF7A2FA0220ADF80000B4
:108F600020788DF802008DF80C509DF80D00F42645
:108F7000ADF8046040F00C008DF81150ADF80650CB
:108F80008DF80D008DF81250608804F10C026946CE
:108F900000F01AFB002822D120216846FEF77FFA54
:108FA0000320ADF8000000E01BE020788DF80200FF
:108FB0008DF80C509DF80D008DF81150ADF804603F
:108FC00040F010008DF81250ADF806508DF80D00ED
:108FD0008DF813506088221D694600F0F5FA0EB036
:108FE00070BD0E20FBE70000A4E1020070B588B060
:108FF0000446002927D0002C25D0084621881029B6
:1090000023D0502927D057291DD10546A188406972
:1090100006AAFFF749FA002815D1069E30780028E5
:1090200011D0A86900280ED018216846FEF737FA3B
:1090300001208DF800000195A088ADF80800039686
:10904000A9696846884708B070BD08B02146BDE8E8
:10905000704003F09DBC08B02146BDE8704003F0AD
:1090600077BD0000F0B5074685B000200D46ADF88D
:1090700000000446134E21E03078002820D0291B40
:10908000F42903DBF420ADF8000001E0ADF8001096
:109090000D49D1E90801CDE901010A4801A92030B3
:1090A0008088ADF804003819CDF80CD00490708891
:1090B000AEDF18B9BDF80000204484B2AC42DBDB5F
:1090C00005B0F0BDE031002090DC0200007800F037
:1090D000010070470149085C70470000C4DC0200D1
:1090E000094908B5085C0090684602F08DF8D0F890
:1090F0000425009B0121994021EA0203C0F80835AC
:109100001140C0F80C1508BDC0DC02000249085C23
:10911000012102F0FEB80000C0DC02000249085C38
:10912000002102F0F6B80000C0DC0200084908B5D2
:10913000085C0090684602F067F8D0F804050099D2
:10914000C84010F0010000D0012080F0010008BDEF
:10915000C0DC020010B500242046FFF7D7FF641CD6
:10916000042CF9D310BD10B500242046FFF7D6FF1C
:10917000641C042CF9D310BD10B50246064B4FF009
:10918000FF3000215C5C944201D1084610BD491CAF
:109190000429F7D310BD0000C4DC020010B5002084
:1091A00000F066F908B1062806D1012000F060F948
:1091B00008B1062800D1002010BD00002DE9F047BD
:1091C0000D468146FFF7D8FF0446042836D2DFF863
:1091D00074801B481C4EA8F10C0725B3012D0ED03E
:1091E000022D2BD104EB440030444578002D25D0CE
:1091F000B968002922D02846BDE8F047084704EBAB
:109200004401755C0E44717849B10E4A4FF48041B7
:10921000093A8068FFF7B8F808B987F80390B17881
:1092200008F80410E2E78068FFF7D8F804EB44017F
:10923000314418F804008D78A842D7D0BDE8F087F3
:1092400060E10200943300207568012070B50023AE
:10925000042810D20D4D00EB4004012A02D101294F
:109260000CD00022094E00EB4000304461B10129CE
:1092700006D0022906D00723184670BD0E30C2B2B0
:109280002A55F9E74270F7E78270F5E77568012023
:10929000044A014600201279D20702D0084600F0A5
:1092A00003B87047883300202DE9F05F6E4C054607
:1092B00000266078B34618B184F801B001F074F864
:1092C0006A4F4FF47A694FF4C87A4FF00108182DAD
:1092D00069D2DFE805F00C1313384754696E727BCE
:1092E000727BC58484848484B3B6B9BCC5C501F0DF
:1092F0005BF83868FFF772F806465CE00020FFF77D
:1093000015FF00284FF0000008D0FFF7FFFE022DE8
:1093100002D14FF4E16008E0484606E0FFF7FEFEA8
:10932000022D01D1C82000E05046410CC0034FF48B
:109330007A72801841F10001257052000023FEF777
:1093400051F801462AE00020FFF7F0FE00284FF018
:10935000000004D0FFF7DAFE4FF44870E5E7FFF7AE
:10936000DDFEDFE70020FFF7E1FE00284FF0000000
:1093700002D0FFF7CBFECFE7FFF7D0FED4E7002007
:10938000FFF7D4FE00284FF0000002D0FFF7BEFE2A
:1093900001E0FFF7C3FE257040F6CD41002238689A
:1093A000FEF7F2FF064646E00020FFF799FE257023
:1093B00008E0002051E025703DE084F801800120A4
:1093C000FFF78EFE002240F26661E8E784F8018034
:1093D0000120FFF785FE00224FF40051DFE7786897
:1093E000FEF7FCFF0646D5F1110000D02EB1022099
:1093F000FFF78CFE84F802B01DE0012816D980B278
:10940000C8214843C117C90341EA5041C0034FF482
:109410007A72801841F1000152000023FDF7E2FF4B
:10942000014600227868FEF7AFFF06460220FFF7EC
:1094300075FE84F802803046BDE8F09F00F0B4FF6E
:10944000B9E700F0B1FFB4E700F0AEFF04E000F0D0
:10945000ABFF0020FFF762FE0120FFF75FFEAAE7E7
:10946000FFF781FEA7E700008833002060E10200DB
:10947000012104F0E7BB00002DE9F84F0546861CEA
:1094800000208DF8000091460F464FF0010A684613
:10949000FEF7C6FF1B4C04F21C4860683860D4E934
:1094A0000101194F401A3968081A0EE0012140469F
:1094B00001F0C4FA00F09EFF0146404601F0BEFAFA
:1094C000D4E90101401A3968081A401C8642EDD8D7
:1094D000B9F1000F03D0052065F3891002E00620E2
:1094E00065F39F5061683A68114004EB8101C860E0
:1094F0006068304460609DF80000FEF7B5FF50469C
:10950000BDE8F88F806C01208434002070B50D46D2
:1095100004460A2902D10D21FFF7F8FFA06822684E
:10952000411CA1601554D4E90101814204D32046B5
:10953000BDE8704001F0D4BC70BD000004488168F3
:109540004068814201D1012070470020704700002F
:10955000806C012005494FF0FF32082841F8202097
:1095600002D3084480F85820704700006869012041
:10957000F0B54FF0FF3512B10023082601E00823B3
:109580000C260C4C05E000BF54F823707F1C04D05F
:109590005B1CB342F8D32846F0BD26185DB286F8AE
:1095A000305044F82310002AF5D1E11881F8580012
:1095B000F1E70000686901200249084490F9300091
:1095C00070470000686901202DE9F04381468878E2
:1095D00091B090460C4600B901208DF83E002088DD
:1095E000ADF83C0000250095607C694603F082FDE3
:1095F0006E46A07C711C03F07DFDE07B00289DF889
:10960000020002D040F0080001E020F008008DF8D0
:109610000200217C11B140F0100001E020F01000A8
:109620008DF80200217B11B140F0010001E020F033
:1096300001008DF80200217D09B1022100E0012125
:1096400061F342008DF802001C2102A8FDF727FFFC
:10965000607BC10601D4800617D50E950EAFE07C65
:10966000791C03F047FD9DF83800079720F00F00A4
:10967000401C20F0F00010308DF838009DF83A00C2
:1096800020F00600801C8DF83A00607B8DF8080001
:10969000A07B8DF80900142109A8FDF700FF0FA891
:1096A000CDE90906A088ADF83000A06820B1E088B7
:1096B000ADF82C00A0680D90A06998B301950088C2
:1096C000ADF81000A06901AD01A94088ADF8120005
:1096D000A069406806950390A069007B03F00AFD2D
:1096E000A069691C407B03F005FDA069807A002811
:1096F0009DF8060002D040F0080001E020F00800CC
:109700008DF80600A169C97A11B140F0100001E09E
:1097100020F010008DF80600A169097A19B140F017
:10972000010002E00DE020F001008DF80600A169C3
:10973000897B09B1022100E0012161F342008DF82B
:109740000600E06900B10590434609AA02A948460F
:10975000AADF11B0BDE8F08370B5084C050009D050
:1097600010342168002907D008682060496828461D
:109770008847F6E70834F4E770BD0000546901201B
:10978000054A012120B1012805D19170FFF7E4BFFE
:1097900051700020FAE770475469012010B5D0E9F4
:1097A0000234D1E90220D11AA04101D3012010BD19
:1097B000002010BD1CB50021009101918DF8000022
:1097C0006946022067DF002801D0FEF78DFD1CBD31
:1097D00073B58CB00646002000900D9880B100242F
:1097E0006D4621460DA801F00EF930B1009805EB49
:1097F000400084800098401C0090641C142CF0D31E
:109800002C2269463046FDF731FE0EB070BD2DE9C1
:10981000F04117880646B81D14460D46984202D9F5
:109820000C20BDE8F0813188072206290AD34FF4C5
:10983000486C4FF6FF73614501D9994202D1708897
:10984000062801D21046ECE7604501D99842F9D1CB
:10985000994203D0984201D08142F3D80520E855BF
:1098600020881221401C80B2208029542088401C6E
:1098700080B220804119308804F0CAF82188084459
:1098800080B220804119708804F0C2F82188084411
:1098900020800020C5E7FEF727BD000038B54A7AD2
:1098A0000F4B62B100220A725969002906D00122C9
:1098B0008DF80020ADF802006846884738BD0A7A66
:1098C00062B19B684C68024619462046FEF75CFD73
:1098D0000028F3D0BDE8384003F098BB5B68F1E79F
:1098E000BC68012070B588B006460020059006903F
:1098F000ADF81410ADF816100190029001AA05A958
:10990000304690DF050021D002F030FB03461148BD
:1099100011493246401AC108012000EB01400446BB
:109920000E4901F00AFFBDF8042012B9BDF8060087
:1099300028B1BDF80630204609A101F0FEFEBDF8B1
:1099400008201AB12046164901F0F0FE08B028465A
:1099500070BD000094EC020094EC0200D0E4020020
:109960005468652072657175657374656420545818
:109970002F5258207061636B6574206C656E67743C
:109980006820697320746F6F206C6F6E6720627936
:109990002025752F2575206F63746574732E000064
:1099A0001CE5020010B50021024801F058F880F3D0
:1099B000100010BD9C7001204FF480328A40016875
:1099C000C1F848230068C0F8082370474FF4A0721C
:1099D00002EB810189B200F084B92DE9F04105461E
:1099E0000E464FF4A07000EB860081B228684FF459
:1099F0008034B440984622F07F47C0F80843286876
:109A0000C0F84843286802F053F8286800EB860045
:109A1000C0F840752868C0F84443B8F1000F02D080
:109A20002868C0F80443BDE8F0810068D0F8040558
:109A30007047000070B54379234C44F823204279E5
:109A4000231D03EBC202224C1579204A121BD408B5
:109A50002DB10825022000EB04401EA130E005686E
:109A60000A88C5F8082590F904208978002A4FEA69
:109A7000411104DB02F1E02282F8001405E002F05B
:109A80000F0202F1E02282F8141D90F90410012265
:109A9000002909DB01F01F0502FA05F549098900D3
:109AA00001F1E021C1F800514179002503EBC1012A
:109AB0000A71417943F83100032000EB04400EA104
:109AC00001F030FE284670BD643400200CED020029
:109AD00094EC020052544320696E7374616E6365A6
:109AE00020616C726561647920696E697469616C6A
:109AF000697A65642E0000005254433A20696E6909
:109B00007469616C697A65642E00000090F9040044
:109B1000002809DB00F01F0201219140400980006C
:109B200000F1E020C0F8001270470A46022100F060
:109B3000CFB84FF4827100F0D4B800680121016001
:109B4000704700680121416070472DE9F05F0746CA
:109B50000C464FF4A07000EB84001FFA80FA3868BE
:109B60004FF48036A6409B4622F07F45C0F84863FC
:109B70003868C0F808633868D0F8048500EB8402C0
:109B8000D2F84095C2F840855146386801F090FF00
:109B9000A9EB080020F07F40012806D1102002F038
:109BA0004FFA5146386801F083FF3868D0F80485D1
:109BB000C0F84463A5EB080121F07F413868012912
:109BC00000EB840010D0C0F840553868D0F8041578
:109BD0006FF07F4C6A1A521E22F07F42ACEB0B03EF
:109BE000934217D362B118E06D1CC0F840551020A5
:109BF00002F026FA3868D0F8040540450AD10CE096
:109C000000EB84006D1CC0F840553868D0F804059E
:109C1000884202D00D20BDE8F09F0122314638462F
:109C200000F056F80020F6E72DE9F047BCB04FF4FD
:109C30008042244938A8FDF7B7FCF02202231146E0
:109C40006846FEF72FF838A96846FDF747FFDFF8AA
:109C500078901E4E00254FF4F06A0DF1A00800BF69
:109C6000C5EB051109EBC11152461848FDF7FEFB83
:109C700000273C46002041463B18C3EB031304EB8E
:109C8000031301EBC0023344401CD3F800C0C2F8F8
:109C900000C05B6853600828EEDB38AA28A9684634
:109CA000FDF74AFE0834F02CE4DB6D1C1E2DD7DBDB
:109CB00038A96846FDF7E8FEDDE938013CB0401AF6
:109CC000BDE8F087BC240120283C0020351D012080
:109CD0000368C3F84413002A02D00068C0F80413D4
:109CE000704710B5006842581AB101F0E1FE01203A
:109CF00010BD002010BD0AB100F090BE00F078BE8B
:109D000070B50D460446B0F81414D0F810040122C2
:109D1000FEF7AFFC00B1057004F13C0204F582616E
:109D200004F1540072DF70BD0D484A8843889A429E
:109D300015D10A88A2F52063773B10D18988C91E06
:109D40008AB2828001210170064807491346401AF1
:109D5000C008032101EB004004A101F0EEBC7047F4
:109D6000E031002024ED020094EC020044617461B3
:109D7000206C656E2069732073657420746F2030C9
:109D8000782558282564290010B50949094800F0AC
:109D9000DDFE08B1FEF7A8FAF721064800F0CAFE7A
:109DA000002803D0BDE81040FEF79EBA10BD0000A9
:109DB000299D0200D437002010B50B48FFF735FE6F
:109DC000094A083AD2E90434C018D2E9063244F10B
:109DD0000001C31A71EB020204D24FF080728018A6
:109DE00041F1000110BD00004834002001214FF472
:109DF000827000F0C1B930B587B00446012204A9D1
:109E000042F2011000F01CF9D8B301252A4605A939
:109E100042F2021000F014F998B3012202A942F2B2
:109E2000031000F00DF960B3012206A942F20410FC
:109E300000F006F928B3012201A942F2200000F047
:109E4000FFF8F0B19DF810009DF808209DF804106F
:109E5000831A8B4202DC02448A4200D2002564B19C
:109E600020709DF8140060709DF80800A0709DF8A7
:109E70001800E0709DF80400207115B1002007B0B3
:109E800030BDFFE70120FAE738B5044608A00122FB
:109E9000006800906946100200F0D2F800289DF892
:109EA0000000207001D0002038BD012038BD000026
:109EB0000100000010B500F04FF800F0F5F800F0D8
:109EC00045F9BDE81040014800F002B838320020E2
:109ED0002DE9F04104460F480F494FF6FF77401A2D
:109EE000C008032101EB00482588A678BD4201D1B6
:109EF000FF2E0CD03146284600F03EF928B94046E6
:109F000033462A4605A101F018FC241DECE7BDE804
:109F1000F081000024ED020094EC0200686D303105
:109F200062305F77726974655F7265672066616928
:109F30006C20616464726573733A25642076616C89
:109F400075653A25640000000248017881F001013E
:109F5000017070472032002010B586B01C200090A0
:109F6000684601F05FF9009A032100EB8200C0F817
:109F7000001702F021F908B1FEF7B6F92C4C2D4A72
:109F800004A92068049001208DF81100032002F03C
:109F9000ABF808B1FEF7A8F90121032002F058F848
:109FA00000F050FF08B1FEF79FF9D4E90401CDE9B4
:109FB0000201214A02A9214802F096FB08B1FEF7EE
:109FC00093F96068059005A92A2002F031F908B1DB
:109FD000FEF78AF90020014600900123022217486B
:109FE00002F06CFB01A802F0A7F908B1FEF77CF9BA
:109FF000124804682A2004F5A07402F075F902469C
:10A0000021469DF8040002F0CDF908B1FEF76CF985
:10A010009DF8040002F0E8F908B1FEF765F92A207E
:10A0200002F06AF9054802F03BFB06B010BD0000E3
:10A03000C8DC0200499F020035D30200283200200C
:10A040007CB50D46010A8DF804108DF8050000203E
:10A0500014460090022301AA2421084800F02CFF96
:10A0600038B906482421001D2A46234602F01EFC6A
:10A0700008B100207CBD01207CBD0000E0DC0200B6
:10A0800010B50446032804D143F2200000F074F810
:10A0900038B121464FF4807000F06EF808B100200E
:10A0A00010BD012010BD000000B587B018220D4979
:10A0B0006846FDF7DBF91F200390FF2000901D206C
:10A0C00001901E20029000208DF810000548064ADD
:10A0D0006946203800F0C2FE002801D0FEF704F9DE
:10A0E00007B000BDF0DC0200C9D102002DE9F84341
:10A0F000134C074620780028FCD00025F026A846FF
:10A10000C5EB05100E4907EB00130522C91C0D48CD
:10A11000009602F0A1F9A0780028FCD084F8028013
:10A120006D1CF02DECDB0649074B0522C91C0548C8
:10A13000009602F091F920780028FCD1BDE8F88360
:10A1400020320020D0DC0200B56401201FB5094B8D
:10A150000FCB8DE80F00074800231A4669462838C0
:10A1600000F08AFE08B1FEF7BFF80248243802F07A
:10A170001BFB1FBD08DD02001CB5020A8DF8042080
:10A180008DF8050000208DF806100090032301AA29
:10A190002421044800F090FE08B100201CBD0120DD
:10A1A0001CBD0000E0DC02000146034802888A4230
:10A1B00000D0002070470000A86801202DE9FC5F56
:10A1C0000E008346DDE90C47C6F100009846924632
:10A1D000814600D40846012503E000BF90FBFAF059
:10A1E0006D1C5045FADAA84500D9454624B1002E29
:10A1F00001DB780700D5641EB80702D5B8F1000F5F
:10A200000AD0F80708D13CB1A54205D22021584612
:10A21000641EFFF77BF9F6E7002E02DA4E462D2189
:10A2200002E0780703D52B215846FFF76FF907F0B6
:10A23000030002280BD1B8F1000F08D13CB1A542B0
:10A2400005D230215846641EFFF760F9F6E7CDE9E4
:10A250000047434652463146584603F0DFFBBDE80F
:10A26000FC9F024600201268530713D502F003003A
:10A27000012802D002280CD105E0C2F383100B683C
:10A28000801C184404E00223086803EB9252104437
:10A2900008600120704770B50C464FF4887605467B
:10A2A000314601F0B4FB50B13146284601F0B4FB11
:10A2B0006079400703D5216809B1012088474FF430
:10A2C0008A763146284601F0A2FB50B13146284635
:10A2D00001F0A2FB6079000703D5216809B10220D3
:10A2E00088474FF48E763146284601F090FB50B1F6
:10A2F0003146284601F090FB6079C00603D42168FE
:10A3000009B1002088474FF482763146284601F093
:10A310007EFB00280CD03146284601F07DFB012051
:10A3200020712168002903D0BDE870400320084750
:10A3300070BD00000121814003484068014201D006
:10A340000120704700207047203400200146012082
:10A350008840FEF7A3B8F0B58488A518944200D8C9
:10A360002246A41AC288D6189A4200D81346D21A96
:10A370004B880788BB420CD34088834209D8888821
:10A38000A04206D3A84204D8C888904201D3B04264
:10A3900001D90020F0BD0120F0BD01218140C8039A
:10A3A00000D00120704700000A4810B5807860B1E5
:10A3B000002401E0022C06D02046FEF7A7FE641C14
:10A3C000042CF7D310BD0324F6E7BDE81040FEF7D8
:10A3D000C1BE000088330020F72101801721418091
:10A3E000002101714171FB2181711B21C1717047F5
:10A3F000704700002DE9FF410026244800F01BFBB8
:10A400002248001F074600F016FB214C2149A06896
:10A4100000900D6800E000986946284004EB800039
:10A420000C30FFF71EFF0028F5D101AA009901EAC0
:10A43000050304EB8303491CDB6842F82030401C11
:10A4400000910228F2D3019800F0030001280BD0FC
:10A45000022810D10198032101EB90500099BDF81A
:10A460000A6001EB900005E00198BDF80A60C0F3B6
:10A47000831008440090384600F0DAFA08B10098DA
:10A48000A06004B03046BDE8F08100009870012063
:10A49000806C012084340020AEB04FF48041002055
:10A4A00001F0ACF908B1FDF71FFF01F011F8FFF75B
:10A4B00001FD904890490326401AC00806EB00446D
:10A4C0008EA1204601F02EF9204692A101F02AF932
:10A4D000FDF72CFF08B1FDF707FF20468FA101F023
:10A4E00021F901F09FFA08B1FDF7FEFE20468DA18B
:10A4F00001F018F901F04CFC08B1FDF7F5FE00255C
:10A5000069460120009501F0E3FA08B1FDF7ECFE81
:10A51000019501278DF8047007208DF8060002953B
:10A52000039501A92120009A69DF684601F068FBC4
:10A5300008B1FDF7D9FE20467CA101F0F3F8012017
:10A54000FFF738F99DF808007AA120F00F00401CB1
:10A5500020F0F00010308DF80800072202A87CDF00
:10A5600008B1FDF7C1FE00952820ADF80000019567
:10A57000ADF80200ADF804504FF4C870ADF8060015
:10A5800068467ADF08B1FDF7AFFEFFF7FDFB6B48C9
:10A59000019001A96A4800F09EFB08B1FDF7A4FEF6
:10A5A0006848009069466848FEF7B6FC08B1FDF7B8
:10A5B0009BFEAC216846FCF772FF02208DF800007C
:10A5C0008DF8025005208DF803005F48ADF84C70FF
:10A5D0001A3814904020229044F2506023908DF855
:10A5E0007C705A482990564869460C30FEF777F837
:10A5F00008B1FDF779FE524801210C30FEF76CF8E6
:10A600001C216846FCF74BFF4FF4A030CDE9005009
:10A610004FF4F02002904E4805904E488DF80C60A3
:10A620000690ADF80E508DF810506846FEF718FAF7
:10A6300008B1FDF759FE424803210C30FEF7F8F847
:10A6400008B1FDF751FE204643A101F06BF820460A
:10A6500047A101F067F8FF208DF8AC002CA8FFF7A8
:10A66000CAFB2BA8FFF710FC20469DF8AC2044A1A4
:10A6700001F05CF8FFF7BAFB01210846FFF700FD87
:10A680000220401CF028FCDB2F4D203D00F02EFF67
:10A690000028FBD1414F4FF461493F4E07F1550867
:10A6A00000F024FF08B901F0D1F920463CA101F0E7
:10A6B00039F828780028F3D04946F01DFFF716FD39
:10A6C000FFF7B2FA01462869C7F85500A88AA7F82B
:10A6D0005900A87D87F85B0008EB0100D5F80A2037
:10A6E00040F8062DEA8982802C485530FEF7BAFCE6
:10A6F000D6E7000024ED020094EC020043616D6592
:10A7000072612050686520696E697420446F6E65BF
:10A710002E0D0A00496E697420300000496E69747C
:10A7200020310000496E697420313100496E69742E
:10A7300020320000584B6C696C69690091BA0200C4
:10A74000E837002035C902000032002051C902005C
:10A7500075C9020097980200424C45205068652058
:10A76000696E697420446F6E652E0D0A000000004A
:10A77000496E697420697320446F6E6500000000A3
:10A78000484D303142302063757272656E74206DB1
:10A790006F64652025640A00283C002060240120A5
:10A7A0004765745F70696374757265725F68616E26
:10A7B000646C65720000000070B5144682880E4615
:10A7C00005462088111D0144921C994201D8FE2A99
:10A7D00001D90C2070BD521C32542088FF21401C2E
:10A7E00080B2208031542088401C80B220808119A2
:10A7F000288803F00DF92188084480B22080AA88B7
:10A8000042B1A96841B13044FCF730FE2088A988E4
:10A8100008442080002070BD072070BD2DE9F0475E
:10A82000C5881E1DB6FBF5F78946B6FBF5F1044653
:10A8300005FB176C407916686843DDF820A0F7180F
:10A84000001F874200D9C61A166001E02468491E1D
:10A850000029FBD1A5EB0C078846B74216D818E0B3
:10A8600004EB0C00001D09EB0803BAF1000F3A4697
:10A8700002D00146184600E01946FCF7F7FD2468AF
:10A88000F61B4FF0000CB844B54201D9374600E042
:10A890002F46002EE4D1BDE8F087000030B5024617
:10A8A00051B100F0BFFF0021074C08E034F821301F
:10A8B0001568AB4202D11160002030BD491C8142B5
:10A8C000F4D3052030BD000000000000F8B50F46AD
:10A8D000017814460546012901D1687830B12088F5
:10A8E000821C9A4232D8012902D006E00720F8BD26
:10A8F00069780144891C994228D8181A801E86B2AA
:10A90000ADF800602188B81C084469467DDF002846
:10A91000EDD12978022904D06878BDF80020904252
:10A9200005D3BDF80000B04201D809200AE0082094
:10A93000012905D16978B14202D8ADF8001001E0D3
:10A94000ADF80060BDF80010FE2901D90C20F8BD5B
:10A950002288491CB9542188491C89B22180785425
:10A960002088401C2080BDF8001008442080002072
:10A97000F8BD10B531B1B2FBF3F403FB14241CB1E4
:10A98000092010BD0E2010BD0160002141608160D2
:10A990008281C381084610BD70B50C460546FCF7A0
:10A9A00039FC002802D021882868084470BD10B501
:10A9B0000A8849888A4203D1FCF76EFC012010BD49
:10A9C000002010BD70B50C460546FCF748FC002879
:10A9D00002D061882868084470BD10B50A8849888B
:10A9E0008A4203D1FCF732FC012010BD002010BDCB
:10A9F00001F01F0301229A40D243490900EB810074
:10AA0000114600F021B84A0950F8220001F01F0257
:10AA100001219140084000D00120704701F01F0340
:10AA200001229A40490900EB8100114600F01CB850
:10AA3000002100F00FB8012100F016B808B56A46F1
:10AA4000FCF77FFC009808BD08B56A46FCF75FFC80
:10AA5000009808BD08B56A46FCF759FC08BD08B562
:10AA60006A46FCF73BFC08BD08B56A46FCF742FCA9
:10AA7000009808BD08B56A46FCF770FC009808BD50
:10AA800038B5044600258DF800506846FDF7C8FC2F
:10AA900021686268086890420ED9401E08600178FB
:10AAA000238AE26801FB0325227A2168101AC0B2CA
:10AAB0000A79824200D208719DF80000FDF7D4FCAB
:10AAC000284638BD38B5054600208DF800000C46F4
:10AAD0006846FDF7A5FCE868298A201AB0FBF1F169
:10AAE0002A681068431C136001709DF80000FDF790
:10AAF000BBFC38BD10B530B1017A42680368891AD1
:10AB0000C9B21A6006E00E2010BD03681A68541C12
:10AB10001C601170491EC9B2F7D200680021017192
:10AB2000084610BDC20800F007030120895C984068
:10AB30000840704728B1A1F11702E12A03D307208A
:10AB400070470E20704701800020704710B560B13B
:10AB50000161F72120F8021B20F8021BFB2100F8FD
:10AB6000021BFFF739FC002010BD0E2010BD0000B5
:10AB7000F0B5858893B00C46002D39D101880026A8
:10AB80003F4F24293BD006DC102909D011290CD0D5
:10AB9000232958D14FE03A290BD0552953D129E028
:10ABA0000146204601F02AFF4DE0A01DFFF714FCEE
:10ABB00049E02246408934F8061F814200D8084601
:10ABC0006080172800D217206080106970B160790A
:10ABD00060B1D7E90001CDE90301ADF80E506088FE
:10ABE000ADF81000136903A91046984766712671E5
:10ABF00013B0F0BD0146204601F054FF23E0011DD3
:10AC00002C2206A8FCF732FCBDF81800BDF81C2069
:10AC100004EBC0014A732269AAB1D7E90423CDE944
:10AC20000423ADF81200487B8DF8140022692046F9
:10AC300004A9904707E0017A207B884200D20146B0
:10AC40002846FEF74FFEA07A0028D1D0E18828469A
:10AC5000A5DF012580B11128CAD001F087F902468D
:10AC60000848094913B0401AC00805EB0040BDE888
:10AC7000F04006A100F05ABDA672E572B8E70000E8
:10AC80008CE1020094EC020094EC020073645F62B9
:10AC90006C655F67617474635F65786368616E6734
:10ACA000655F6D74755F72657175657374282920B1
:10ACB00072657475726E65642025732E0000000045
:10ACC00020B10278DE2A03D0082070470E2070479A
:10ACD00041800020704760B159B10278DE2A0AD065
:10ACE00009684160DE2101704FF6FF71418000204C
:10ACF00070470E207047082070477FB50546002931
:10AD00004DD0002D4BD008780C46DE2847D1A888BE
:10AD10006188884202D1204602F01AFF2888012863
:10AD200025D002283BD011283AD0512837D135F808
:10AD3000040F6188884232D1A978A81C02292ED13B
:10AD4000017A042903D0062901D0052927D1002141
:10AD5000009102228DF8002001914FF4C0720291FF
:10AD60000391ADF80420007A05280FD010E0297A6D
:10AD70002046012913D1A988428891420FD101218F
:10AD8000017204B0BDE8704002F0E2BEADF80410FC
:10AD900028886946B0DF002801D0616888477FBDF8
:10ADA000A88861888842FAD14FF6FF7060807FBD25
:10ADB00000F180400068002800D00120704708B5ED
:10ADC00000F18040002101600068009008BD000093
:10ADD00070B50D4C0125207808B185260EE00020C5
:10ADE000A06060602061E060084801F0F9F8064664
:10ADF00001F01AF808B901F0DDF8257001F0D2F879
:10AE000000B1A570304670BD5469012081970200E1
:10AE100038B500258DF800506846FDF701FB084C59
:10AE2000E068401EE060E06828B901F0BBF810B9A6
:10AE300001F0E6F8A5709DF80000FDF715FB38BDA0
:10AE4000546901200448017809B185207047012127
:10AE500001700020704700003834002030B40379BE
:10AE6000034C44F8232030BC024A01F035BB0000FB
:10AE70005C6A0120D9D102002DE9F0410646047830
:10AE80000B4815460F4640F82420083040F824307F
:10AE9000487B10B1084602F00FFB0DB1054A00E0F7
:10AEA000002223463946301DBDE8F04101F08CBC3C
:10AEB000283400205DD5020038B5001D049C0094A4
:10AEC00001F00CFD38BD0FB408B50399002904D07A
:10AED00004AA00926A4600F00FF801B05DF814FB76
:10AEE00010B582680446002A05D0D4E9040321681D
:10AEF00098470020A06010BD2DE9FC4791460C004A
:10AF0000804676D014F8011B39B125290ED0404671
:10AF1000FEF7FCFA20780028F4D198F80C000028FD
:10AF200067D04046BDE8FC47FFF7DABF00200122AA
:10AF300021782B291BD02D2902D0302908D102E0FD
:10AF400040F0010001E040F00200641C002AEFD153
:10AF500000252A290ED02178A1F130020A2A11D227
:10AF600005EB850201EB4205641C303DF1E740F042
:10AF70000400EAE7D9F800100B1DC9F80030096891
:10AF8000641C0D44217800232E290BD114F8011FD5
:10AF9000A1F130020A2A05D203EB830201EB42033E
:10AFA000303BF3E76C290DD068290BD0692921D0FB
:10AFB0000BDC252918D0582931D063290ED06429FB
:10AFC00015D117E014F8011FECE7702969D0732937
:10AFD00032D075291BD0782909D120E0D9F800009A
:10AFE000011DC9F8001001784046FEF78FFA641C75
:10AFF00090E76CE0D9F800100A1DC9F80020096834
:10B00000CDE900500A224046FFF7D8F8EFE7D9F81B
:10B0100000100A1DC9F8002009680A2206E0D9F8C4
:10B0200000100A1DC9F8002009681022CDE900505F
:10B03000404602F0F3FCDAE7D9F8001000270A1DB9
:10B04000C9F800200E68C00705D112E04046761C02
:10B050007F1CFEF75BFA31780029F7D104E020214C
:10B0600040466D1EFEF752FABD42C0D9002DF6D102
:10B07000BDE74EB13046FCF71DFA074604E020213B
:10B0800040466D1EFEF742FABD4206D9002DF6D1AC
:10B0900003E04046761CFEF739FA31780029F8D1F2
:10B0A000A5E7D9F80000011DC9F800100568302196
:10B0B0004046FEF72BFA78214046FEF727FA082093
:10B0C0000021CDE90001034610222946B0E7BDE882
:10B0D000FC872DE9FF411C46DDE90A7815460E463E
:10B0E000684600F0ADF846EA450141EA840141EACC
:10B0F000072242EA0841009A00EB8200C0F80017DC
:10B10000BDE8FF8170B52028DDE9046502D24FF06B
:10B11000A04402E0074C00F01F0041EA420141EA6E
:10B12000830141EA062104EB800041EA0541C0F8B1
:10B13000001770BD0003005070B52028DDE90465DC
:10B1400002D24FF0A04402E0074C00F01F0041EA99
:10B15000420141EA830141EA062104EB800041EA11
:10B160000541C0F8001770BD0003005013B50C4630
:10B17000684600F065F8009900EB8101D1F80027DE
:10B1800022F44032C1F80027009900EB8100D0F88A
:10B19000001741EA0441C0F800171CBD3CB50A4C39
:10B1A000D4E90034CDE900346B46441808E000BF10
:10B1B00053F82010D1F8205520C2C1F82055401C6A
:10B1C0008442F5D83CBD0000B4E1020001B56846F8
:10B1D00000F036F8009A01219140C0F80C1508BD26
:10B1E00001B5684600F03AF8009A01219140C0F894
:10B1F0000C1508BD01B5684600F03EF8009A012123
:10B200009140C0F80C1508BD0168202902D24FF00A
:10B21000A040704701F01F01016001487047000025
:10B22000000300500168202902D24FF0A04070476F
:10B2300001F01F0101600148704700000003005049
:10B240000168202902D24FF0A040704701F01F0191
:10B250000160014870470000000300500168202988
:10B2600002D24FF0A040704701F01F010160014879
:10B2700070470000000300500168202902D24FF0FF
:10B28000A040704701F01F010160014870470000B5
:10B290000003005042094FF0000102D0012A05D1FD
:10B2A00002E04FF0FF3101E04FF6FF7100F01F00A8
:10B2B000012282400A4201D00120704700207047DD
:10B2C00001B56846FFF7BCFFD0F810050099C840EB
:10B2D00000F0010008BD01B56846FFF7B1FF009A14
:10B2E00001219140C0F8081508BD01B56846FFF777
:10B2F000B5FF009A01219140C0F8081508BD01B5BD
:10B300006846FFF7B9FF009A01219140C0F808157F
:10B3100008BD38B501240090684631B1FFF774FFCD
:10B3200000998C40C0F8084538BDFFF76DFF0099C3
:10B330008C40C0F80C4538BD034908B508440021CD
:10B3400001600068009008BD00600040024940585C
:10B35000012800D0002070470060004030B5154A39
:10B3600001460020D2F8104423460AE0DB681D792C
:10B37000854205D1401C0A28F6DB4FF0FF3030BD76
:10B380001B68002BF2D1431CF9D0CB681871D2F89E
:10B39000103443B1DB68CC681B682360D2F81024FA
:10B3A000D268116030BDC2F81014C96800220A606A
:10B3B00030BD0000806C01207047FCF7F9BC70477D
:10B3C00008B5034A00924023024A00F005F808BD80
:10B3D0001DD00200E86A0120F0B595B01C46154664
:10B3E0000F4608461A9E00F0EDFA182109A8FCF74E
:10B3F00056F80E96CDE909540023082203A93846D1
:10B4000000F0F5FA05980690BDF81000ADF81C00A4
:10B41000BDF81200ADF81E0000208DF82100039841
:10B42000082600F00300012802D0022818D032E0DC
:10B4300003983346850AC0F3C2008DF820000398B4
:10B440000FA9C0F38314A200384600F0D0FA09A86F
:10B45000009006AB22460FA9284600F00FFA1AE02A
:10B460000398840DC0F3C2008DF82000082C01D28F
:10B47000254600E0082533462A460FA9384600F045
:10B48000B6FA2E44641B09AB06AA29460FA800F0A1
:10B490005DF9002CEAD1384600F09AFA15B0F0BDFB
:10B4A0000A4A012902EBC00007D0022907D003296C
:10B4B00007D0042907D000207047022070470420DD
:10B4C00070470079704740797047000094EC0200A3
:10B4D00010B5FFF772FF04210348FFF73FFF024951
:10B4E0000120C968487110BD84EC02002DE9F04FBD
:10B4F0008DB0FEF723F818B100200DB0BDE8F08F35
:10B500007E4C4FF0000BC4F818B4BFF34F8F7C494A
:10B51000A06802900D68D846284004EB80000BE03C
:10B52000D4F8180470B961680298814201D8A1600A
:10B53000E2E7284004EB80000C3002A9FEF791FE00
:10B540000028EDD1002005AA029901EA050304EBC9
:10B550008303491CDB6842F82030401C029102281A
:10B56000F2D3059800F00300022802D001284DD044
:10B57000AAE005985022810D8946B2EB905F00D871
:10B5800050210E4666F39F50059008315D4800F04B
:10B59000D0F9070078D000F015FA4346082205A933
:10B5A000384600F02CFA029908F1080A2940681A76
:10B5B0008000001D864222D9504D0C3530B1C2B2F8
:10B5C00004EB8101301A90460C3104E02946F2B2B6
:10B5D000002590462846C6B25346384600F00FFA7A
:10B5E0000AEB080325B132462946384600F007FA2F
:10B5F000029909F1030001EB900002903BE004EB9B
:10B6000081015346324638460C31EFE70598C0F3C6
:10B610008310062800D30620059960F38911C1F331
:10B620008310801C05918100364800F082F90700E4
:10B630004AD000F0C7F94346082205A9384600F071
:10B64000DEF908F1080800260FE00298434600EAF8
:10B650000501401C04EB81010290042238460C31A4
:10B6600000F0CDF908F10408761C0598C0F38310AA
:10B67000B042EAD847B1D4F81054D4F8180478B1DD
:10B68000384600F0A5F934E01EE0E868407901286A
:10B6900004D12A682846394612689047E868056848
:10B6A000002DF2D1384600F093F98DF800B06846CD
:10B6B000FCF7B6FED4F8180408B90298A0609DF80B
:10B6C0000000FCF7D1FE14E0D4F8104405E0216836
:10B6D000204689688847E0680468002CF7D10A484A
:10B6E0000A49401AC008022101EB004008A100F0FD
:10B6F00019F8FDF723FF80F00100FEE6806C0120C1
:10B700008434002044ED020024ED020094EC020099
:10B710004261636B656E647320666C757368656403
:10B720000000000000231A4601F0B8BD08B501234F
:10B7300000926A4601F0B2FD08BD1CB5CDE90023B8
:10B7400002236A4601F0AAFD1CBD00002DE9F04766
:10B750000E4680461C469246082940D894F80C9024
:10B76000002020731946104601F0F4FA0025B54276
:10B7700006D218F805201BA12046FFF7A4FB03E022
:10B780001AA12046FFF79FFB6D1C082DEFD318A1CF
:10B790002046FFF798FB0025B54212D218F8057035
:10B7A0007E2F08D8FBF75EFE0068C05D10F03E0FEC
:10B7B00001D03A4600E02E220EA12046FFF783FB7F
:10B7C00003E00DA12046FFF77EFB6D1C082DE3D39F
:10B7D00001222146504601F09FFA84F80C90BDE802
:10B7E000F087000020253032780000002020200063
:10B7F0007C0000002563000020000000064910B511
:10B8000000200870054800F0E1F8002803D1044842
:10B8100000F040F9002010BD806C012044ED0200D2
:10B8200098E3020002480349401AC008704700002C
:10B8300044ED020094EC020013B56846FFF72EF8C1
:10B8400008B100201CBD0248009950F831001CBD11
:10B8500094EC020070B508480125D0F8104405703A
:10B8600007E0E06845712168204649688847E0683C
:10B870000468002CF5D170BD806C01202DE9FF47D4
:10B8800081460C9D00200C462F7B28739846164657
:10B890002946184601F05EFA072E42D2DFE806F08C
:10B8A00004090F161F2A360049462846FFF70BFBEE
:10B8B00037E0494628462268FFF705FB31E0D4E926
:10B8C000002349462846FFF7FEFA2AE0A0680090C8
:10B8D000D4E9002349462846FFF7F5FA21E0D4E9E8
:10B8E0000201CDE90001D4E9002349462846FFF7CB
:10B8F000EAFA16E004F1080007C88DE80700D4E969
:10B90000002349462846FFF7DEFA0AE004F1080062
:10B910000FC88DE80F00D4E9002349462846FFF7F9
:10B92000D2FA00222946404601F0F6F92F73BDE80D
:10B93000FF872DE9F041058A80462D1F4819C01C5C
:10B94000B0FBF5F0C6B24046FFF79AF8041E19D0D6
:10B950000020207101206071E58000272546761EB9
:10B96000C4F800800BE04046FFF78AF860B16179C7
:10B97000491C6171286005467F1CC0F80080B742F1
:10B98000F1D32046BDE8F081204600F002F8002007
:10B99000F8E72DE9F041457901466B1E002201E0F0
:10B9A0000968521C9A42FBD30F680146002605E045
:10B9B00038460C68FFF786F82146761CAE42F7D36E
:10B9C000BDE8F0810121001DFFF738B8FFF792B8FC
:10B9D00010B504460121001DFFF74CF810F0FF0FD1
:10B9E00004D12046BDE81040FFF7D3BF10BD1CB501
:10B9F00001920122009201AAFEF710FF1CBD1CB5A6
:10BA000001920022009201AAFEF708FF1CBD4058D7
:10BA1000002800D00120704708B50022425040584D
:10BA2000009008BD064910B500204870091D086047
:10BA3000BFF35F8F0349044800F01AFA002010BDDD
:10BA40007034002030E20200DC6A012008B50020DA
:10BA50008DF800006846FCF7E3FCF1EE100A20F0D8
:10BA60009F00E1EE100ABFF35F8F08494020C1F844
:10BA700080029DF80000FCF7F7FC00F0D5F908B152
:10BA800041DF08BD20BF40BF20BF08BD04E000E08B
:10BA9000FCF72ABC8268002191608268116182688B
:10BAA00051618268D160826851608068016070472E
:10BAB00008B5002242504058009008BD20B103490B
:10BAC00009680160002070470E2070471CE40200E6
:10BAD0002DE9FE4307460E460846FFF7EFFF002814
:10BAE0007CD100240094019428208DF800704FF040
:10BAF0000108ADF8040002948DF802806946202008
:10BB0000326869DF3649374A891AC908012202EBCF
:10BB1000014530B100F02AFA024628463249FFF7C3
:10BB200005FE00948DF801808DF802400194029486
:10BB30008DF8034069464020326869DF30B100F07B
:10BB400015FA024628462949FFF7F0FD00948DF8C2
:10BB50000070F720ADF8020001940294694623209A
:10BB6000326869DF30B100F001FA02462846204908
:10BB7000FFF7DCFD0094019402948DF80080694683
:10BB80000120326869DF30B100F0F0F90246284642
:10BB90001849FFF7CBFD4FF4B06000900194029478
:10BBA0006946A120326869DF30B100F0DFF9024652
:10BBB00028461149FFF7BAFD0094019402948DF8CC
:10BBC00000406946A020326869DF30B100F0CEF94C
:10BBD000024628460949FFF7A9FD0020BDE8FE837B
:10BBE00034ED020094EC0200BCEA020004EB020017
:10BBF00050EB02001CEA020068EA0200C8E90200F9
:10BC00002DE9F0410546076860DF804619491A486A
:10BC10002A68081AC608BA4219D9022000EB06445D
:10BC200016A12046FFF77EFD20463A461FA12B684D
:10BC3000FFF783FD4FF08050D0F80C012968800297
:10BC400000F10050421A204625A1FFF76FFDB8F120
:10BC500000004FF001040AD000F088F9024604EB1E
:10BC600006402AA1FFF762FD4046BDE8F0812F485B
:10BC70000470F9E734ED020094EC0200496E73752C
:10BC80006666696369656E742052414D20616C6C13
:10BC90006F636174656420666F72207468652053F9
:10BCA0006F66744465766963652E00004368616E53
:10BCB0006765207468652052414D20737461727409
:10BCC000206C6F636174696F6E2066726F6D2030D7
:10BCD00078257820746F20307825782E00000000B9
:10BCE0004D6178696D756D2052414D2073697A659B
:10BCF00020666F72206170706C69636174696F6E29
:10BD000020697320307825782E00000073645F620C
:10BD10006C655F656E61626C65282920726574755B
:10BD2000726E65642025732E00000000DB34002055
:10BD300030B51548ADF5017D0078002821D04FF4CD
:10BD4000FA7500BFADF8005280A9684661DF38B1CE
:10BD5000052816D00DF5017DBDE83040FCF7C4BACA
:10BD60006C460A497DA800F083F806E0D0E900217E
:10BD7000204690477DA800F092F87F980028E1D0F7
:10BD8000F4E70DF5017D30BDDB34002020E4020036
:10BD90007CB5194C207808B108207CBD0120A0702A
:10BDA000002001F005F9112819D0002001F018F940
:10BDB00012480026006801908DF800606846FCF784
:10BDC0002FFB0F4901A810DF05000AD000202070CA
:10BDD0009DF80000FCF748FB2DB128467CBD0020F3
:10BDE0007CBD0120F3E7A670667001F0BBF901206D
:10BDF00001F0F6F8F3E70000D8340020B4E30200C5
:10BE0000658202000EB50749684600F031F805E08A
:10BE1000D0E900108847684600F041F802980028F1
:10BE2000F6D10EBDD0E30200014800787047000053
:10BE3000D83400201FB568464BDF30B1052814D038
:10BE400004B0BDE81040FCF74FBA084901A800F063
:10BE50000FF806E0D0E900210098904701A800F013
:10BE60001EF803980028E6D0F4E71FBD3CE402006A
:10BE7000016009684160AFF3008010B5D0E900218E
:10BE80005368994201D1002104E0D1E90034A34272
:10BE900002D01946816010BD08314160F0E7816829
:10BEA00000290BD0026892680A44826041684B689E
:10BEB0009A4203D108314160FFF7DFBF704770B588
:10BEC0000D460646446804E0B2682946904718B11A
:10BED000246820680028F7D120682860256070BD9C
:10BEE00040680068704741680868002801D002680F
:10BEF0000A60704702460020526806E08B4203D178
:10BF000008681060012070471A461368002BF5D1AD
:10BF100070474058002800D0012070474058002842
:10BF200000D00120704708B50022425040580090D0
:10BF300008BD00000C4A10B502F594730EE0991A82
:10BF4000C91001EBD171491002EBC1010C688442A8
:10BF500001D90B4602E005D201F108029A42EED364
:10BF6000002010BD486810BD50E2020000B5FFF788
:10BF7000E1FF002800D1014800BD00003CE20200C2
:10BF800008B5002242504058009008BD4058002893
:10BF900000D00120704708B5002242504058009060
:10BFA00008BD000002480068002800D0012070474A
:10BFB0000004014008480068012110F0010F06D17B
:10BFC0004FF0E020C02280F800248430C16703498C
:10BFD000012008607047000000E100E01805004003
:10BFE0000649024600200B790BB1852070470A6094
:10BFF00001220A7100224A717047000008340020B3
:10C00000022010B54107C1F808034FF48270FEF713
:10C01000D6FE05490120086004480168C1F30041CB
:10C020000029FAD110BD00000C00004018040040A7
:10C03000002802D00149800108477047E1E1020071
:10C04000002802D0014980010847704701E2020040
:10C050002DE9F0410D46064600F0D6FD0028304699
:10C0600015D0FDF7A9FA083800F04EFE032802D0DB
:10C0700001280AD003E03046FFF722F928B1032156
:10C080003046BDE8F041FFF771B80221F8E700F053
:10C09000C7FD002822D03046FDF78EFA04464FF443
:10C0A000807000EB84000E4F81B207EB8400D0F863
:10C0B000102542F00102C0F810250846FFF73CF9B0
:10C0C000002D0BD03046FDF777FA064951F82000D5
:10C0D000002803D00120A040C7F80403BDE8F08188
:10C0E00000600040686901202DE9FC41DFF8BC8058
:10C0F000044608EB0400002790F930001346C017EF
:10C100000E46401C01D008274DE0B0781946C0F318
:10C1100040022046FDF72CFA0546401C42D0B0787C
:10C1200041071AD4C0070DD068460094FFF788F87D
:10C13000009900EB8101D1F8000720F00200C1F85E
:10C14000000707E000217378204600910A4601911C
:10C15000FEF7BFFF204600F049FDB078800718D5F4
:10C160001348317800EB8500D0F81025114B1A40A8
:10C17000C0F810254FF47C524FF4403302EA0422F9
:10C1800003EA01410A43D0F810150A43C0F810250C
:10C1900009E008EB0500327810F8581F41EA8211D7
:10C1A000017000E004273846BDE8FC816869012081
:10C1B00000600040FFC0FCFF70B51A4D95F86A00A2
:10C1C00008B1082070BD0024661E2046FFF762F803
:10C1D00010B1281980F83060641CE4B2302CF4D31C
:10C1E00000242046FDF7B6F9641CE4B20C2CF8D309
:10C1F0000C4800210C4C4166A0F868100B49C02087
:10C2000081F8000401264020891FC1F800014FF485
:10C21000BE70FFF791F8A004C4F8040385F86A60C3
:10C22000002070BD686901200060004006E000E069
:10C230002DE9FC41044629480D462044002690F98A
:10C240003010491C01D0082641E0A978002751B3DD
:10C25000012200212046FDF78BF9411C21D08300EB
:10C260001F482A7818446978D0F81035DFF874C070
:10C2700003EA0C03C0F81035D0F810354FF47C5C9D
:10C280000CEA042C43EA0C034FF4403C0CEA024253
:10C290004FF4801C0CEA01510A431343C0F81035D7
:10C2A00004E0042613E0FE2180F8301068780128AD
:10C2B00020460FD0FEF78AFF012220460097002378
:10C2C00011460197FEF705FF204600F08FFC30462F
:10C2D000BDE8FC81FEF7FFFFEEE700006869012082
:10C2E00000600040FFC0ECFF10B500F017F80149F6
:10C2F000084410BD006000400649084490F9300031
:10C30000810005480844D0F8101541F00301C0F839
:10C3100010157047686901200060004010B5FDF7F6
:10C320004BF98006000E10BD0121B1EB507F01D109
:10C3300001207047002070472DE9F84F0427174E61
:10C3400000248246A1464FF0010800BF8DF80090FE
:10C350006846FCF765F808FA04F5354203D0204634
:10C36000FDF7E8FF60B19DF80000FCF77DF827B10C
:10C3700004F10104AE43E4B2E8D13846BDE8F88FD9
:10C38000074908FA04F000274A68104348608AF811
:10C3900000409DF80000FCF767F8EEE7FFFF0100A2
:10C3A000203400202DE9F04114460D00074612D03C
:10C3B0008CB10026FDF7F1FF78B13846FDF7BAFFE2
:10C3C00068B1084800EBC700C0F81055C0F8144524
:10C3D0003046BDE8F0810E20FBE70726F8E7082687
:10C3E000F6E7000000F0014070B505460024FDF7B7
:10C3F000ADFF68B12846FDF7D0FF18B12846FDF71C
:10C4000099FF38B104490120A8400860204670BD5A
:10C410000724FBE70824F9E704F5014038B50D4689
:10C4200000F0E4FC040014D000208DF80000684601
:10C43000FBF7F6FF207928B19DF80000FCF714F80F
:10C44000112038BD0120256020719DF80000FCF707
:10C450000BF8002038BD00002DE9F0478046174654
:10C4600000790E461B4AC0EBC001DDF820901D4646
:10C4700002EB810428B94FF48031894501D28F4203
:10C4800002D30920BDE8F0871EB13046FFF74CFF0C
:10C4900078B11DB12846FFF747FF50B1607D50B11C
:10C4A000012815D0022806D0032804D003252846E9
:10C4B000E8E71020E6E7C4E903652760C4F80490C4
:10C4C000002501222146D8F8000000F0C7FEEEE763
:10C4D0000825ECE7346A01202DE9FF4F80460D4620
:10C4E000007993465D49C0EBC00201EB8207D8F8A2
:10C4F0000040397D83B019B1082007B0BDE8F08F46
:10C50000297C032901D90720F7E7554951F8201064
:10C510002046FFF783FF08B11120EEE728680026C8
:10C520004FF0FF39FF280AD0E97CCDE9001600233F
:10C530001A461946FEF700FED5F800A000E0CA46EC
:10C540006868FF2808D0002300961A46194601960D
:10C55000FEF7F2FDD5F80490009601960022AB7C20
:10C560001146E868FEF7E8FD0023009601961A469A
:10C570001946A868FEF7E0FDD5E90223C4F80825AE
:10C58000C4F81095C4F80CA5C4F81435C4F8346583
:10C59000C4F83865C4F84465C4F84865297C687CEB
:10C5A00000B10120012904D0022905D0032908D1B6
:10C5B00005E040F0020004E040F0040001E040F03B
:10C5C0000600C4F85405287DC4F85C05687DC4F8ED
:10C5D000C0054FF482712046FFF7A5FC4FF494711B
:10C5E0002046FFF7A0FCD4F8000240F00400C4F895
:10C5F00000027E75C7F808B00698B86140F20240A4
:10C60000C4F80403D8F80000A97D40F307300028DF
:10C610004FEA411104DB00F1E02080F8001405E04E
:10C6200000F00F0000F1E02080F8141DD8F80000A1
:10C63000012140F30730002809DB00F01F0201FA56
:10C6400002F24009800000F1E020C0F800213975B5
:10C650000220C4F8000500204FE70000346A0120E2
:10C66000D4E102002DE9F04106460D464FF4803436
:10C6700000681746AC404BB14FF4A07101EB850147
:10C68000FFF77EFC3068C0F8044301E0C0F80843BF
:10C69000306800EB8500C0F84075BDE8F08100000F
:10C6A000016801220A600079034A00EB400002EBB6
:10C6B0008000022101727047506A0120F0B40468C2
:10C6C000049E40F20115D4F800728D40AF43C4F8C7
:10C6D00000720468D4F800521D43C4F80052334677
:10C6E000F0BCFFF7BFBF00002DE9F04104460E4645
:10C6F00000792C4900EB400001EB8007387A10B13B
:10C700000820BDE8F0813A60706800254FF4A078F9
:10C71000786006E008EB85012068FFF731FC6D1CAE
:10C72000EDB26079A842F5D82068F17840F307307F
:10C7300000284FEA411104DB00F1E02080F80014EA
:10C7400005E000F00F0000F1E02080F8141D2068E3
:10C75000012140F30730002809DB00F01F0201FA35
:10C7600002F24009800000F1E020C0F800212068BA
:10C770007278D0F8043562F30103C0F804352068FC
:10C78000B278D0F8083562F30103C0F808352068A4
:10C790003278D0F8103562F30303C0F810353972DF
:10C7A0000020AEE7506A01200179064AC1EB011171
:10C7B000006802EB81010522C0F80025022081F803
:10C7C0002E007047F86901202DE9FC410646174606
:10C7D00000790D46334AC0EB001102EB8104984604
:10C7E00094F82E1011B10820BDE8FC812E4951F8B3
:10C7F00020103068FFF712FE08B11120F4E7C4E9F9
:10C8000000780027A76084F82D7084F8317084F8D0
:10C810003070687B84F838004FF00608CDE9008757
:10C8200003233A4639462868FEF76CFCCDE90087B9
:10C830000022032311466868FEF764FCD5E9001264
:10C840003068C0F80815C0F80C25A968C0F8241590
:10C850002068012208B3306840F30731287B0029A3
:10C860004FEA401004DB01F1E02181F8000405E00B
:10C8700001F00F0101F1E02181F8140D306840F35F
:10C880000730002809DB00F01F0102FA01F140091E
:10C89000800000F1E020C0F8001184F82E20002074
:10C8A000A2E70000F8690120BCE10200F0B585B004
:10C8B00015460E4607461C46142207496846FAF7F5
:10C8C000D5FD8DF801600022694638460395019434
:10C8D00000F020F805B0F0BDC0E102002DE9F04104
:10C8E00086B00E4680461C461546142168460C9FAD
:10C8F000FAF7D5FD8DF80160039501940FB1202260
:10C9000000E000226946404600F004F806B0BDE8A9
:10C91000F081000030B40379054CC3EB031304EB42
:10C92000830413460A460068214630BC01F01EB855
:10C93000F869012070470000034908600348016856
:10C940000029FCD07047000004E5014000E40140EC
:10C9500010B550B103280CD10220FCF799FC002837
:10C9600007D0BDE81040FBF7BFBCBDE8104000F0A9
:10C97000D9BB10BD0078002807D104483B2140886E
:10C9800076DF002801D0FBF7AFBC7047E031002014
:10C99000F0B58BB0002601960D46044689884069A3
:10C9A00001AAFBF781FD0AA8CDE908600227ADF8CE
:10C9B0002070ADF822602189A88808AAADDF002880
:10C9C00019D1A069002816D00998FCF77FFB002830
:10C9D00011D0019E0EB101203070182102A8FAF783
:10C9E0005EFD8DF808700394A888ADF810000596D8
:10C9F000A16902A888470BB0F0BD000070B58D8812
:10CA0000027900EBC5042273C97BA41D012902D061
:10CA1000022904D101E0008800E0408820802188BC
:10CA20006088814211D92846A5DF0126B0B11128BE
:10CA300016D0FFF79BFA02460B480C49401AC00873
:10CA400006EB00400AA1FEF771FEA179E079814270
:10CA500008D92846BDE87040FCF744BF6671F4E78A
:10CA60002671F2E770BD000094EC020094EC020025
:10CA700073645F626C655F67617474635F6578633C
:10CA800068616E67655F6D74755F726571756573FA
:10CA90007428292072657475726E65642025732E62
:10CAA000000000007CB506468D88C88806EBC504EA
:10CAB000A41D172800D217202188814200D80846DB
:10CAC00060800020207121882846B5DF60B1FFF723
:10CAD0004DFA02460F481049401AC008012101EBE7
