:020000040002F8
:10600000D07C0020DD630200E5630200E76302004C
:10601000E9630200EB630200ED6302000000000090
:10602000000000000000000000000000EF6302001C
:10603000F163020000000000F3630200F563020058
:1060400031660200F7630200796A02000967020004
:1060500019670200F76302008D650200F763020012
:10606000F7630200296A0200F7630200F763020087
:10607000F7630200F7630200F7630200F7630200B0
:10608000F763020099660200F7630200F7630200FB
:10609000F7630200F763020039670200F76302004A
:1060A000F7630200F7630200F7630200F763020080
:1060B00089660200F7630200000000000000000093
:1060C000F7630200F7630200F7630200296702002A
:1060D000F7630200F7630200F763020000000000AC
:1060E00000000000000000000000000000000000B0
:1060F00000000000000000000000000000000000A0
:10610000000000000000000000000000000000008F
:10611000000000000000000000000000000000007F
:10612000000000000000000000000000000000006F
:10613000000000000000000000000000000000005F
:10614000000000000000000000000000000000004F
:10615000000000000000000000000000000000003F
:10616000000000000000000000000000000000002F
:10617000000000000000000000000000000000001F
:10618000000000000000000000000000000000000F
:1061900000000000000000000000000000000000FF
:1061A00000000000000000000000000000000000EF
:1061B00000000000000000000000000000000000DF
:1061C00000000000000000000000000000000000CF
:1061D00000000000000000000000000000000000BF
:1061E00000000000000000000000000000000000AF
:1061F000000000000000000000000000000000009F
:10620000DFF80CD000F084F9004800473598020010
:10621000D07C002000B583B002900091019244F23E
:10622000010071466A4600F07BFD03B000BD00002E
:1062300030B450E8012F93B2C48923448489A34227
:1062400028BF1B1B0489A34202BFBFF32F8F00206E
:1062500007E0C3EA020340E80134002CE9D14FF023
:1062600001000A6030BC704750E8012FC2EA0242C8
:1062700040E801210029F7D1704730B450E8022FDF
:106280001FFAA2F3C488A34202BFBFF32F8F0020DE
:106290000DE0C48923448489A34228BF1B1BC2EAA2
:1062A000034340E80234002CE8D14FF001000A60BB
:1062B00030BC704750E8022FC2EA224240E8022177
:1062C0000029F7D17047034653E8022FD988B2EB73
:1062D000324F4FF0000017BF92B241EA014142EA4B
:1062E000014104E05A68B2EB324F08BF012043E895
:1062F0000212002AE8D1704730B4044654E8000F77
:106300000D4644E80053002BF8D1156030BC7047AF
:1063100030B4044654E8000F40EA010544E8005355
:10632000002BF7D1156030BC704730B4044654E8F8
:10633000000F00EA010544E80053002BF7D1156077
:1063400030BC704730B4044654E8000F80EA0105C1
:1063500044E80053002BF7D1156030BC704730B4CF
:10636000044654E8000F00EB010544E80053002BFD
:10637000F7D1156030BC704730B4044654E8000FC4
:10638000A0EB010544E80053002BF7D1156030BCA9
:10639000704770B404464FF0000054E8006F0D6879
:1063A000AE4207BF44E80023012044E800630E60CA
:1063B000002B1CBF0020F0E770BC704730B40446CF
:1063C00054E8000F88422CBF451A054644E80053A4
:1063D000002BF5D1156030BC70470000064880479F
:1063E00006480047FEE7FEE7FEE7FEE7FEE7FEE7BA
:1063F000FEE7FEE7FEE7FEE73D67020001620200FE
:106400002DE9F05F0546002092469B4688460646E9
:10641000814640241BE0284641464746224600F07C
:1064200067F853465A46C01A914110D31146184690
:10643000224600F016F82D1A67EB01084F46224657
:106440000120002100F00DF817EB00094E41201E3D
:10645000A4F10104DFDC484631462A464346BDE844
:10646000F09F202A04DB203A00FA02F10020704756
:106470009140C2F1200320FA03F319439040704782
:10648000004870476CE7020040EA01039B0703D015
:1064900009E008C9121F08C0042AFAD203E011F863
:1064A000013B00F8013B521EF9D27047D2B201E025
:1064B00000F8012B491EFBD270470022F6E710B509
:1064C00013460A4604461946FFF7F0FF204610BD62
:1064D000421C10F8011B0029FBD1801A70470346AB
:1064E00011F8012B00F8012B002AF9D1184670474A
:1064F000202A04DB203A21FA02F00021704721FA19
:1065000002F3D040C2F1200291400843194670477F
:10651000064C074D06E0E06840F0010394E80700F0
:1065200098471034AC42F6D3FFF76EFE40F00200FD
:1065300060F0020070B58C1810F8015B15F00703CD
:1065400001D110F8013B2A1106D110F8012B03E00C
:1065500010F8016B01F8016B5B1EF9D12B0705D414
:106560000023521E0DD401F8013BFAE710F8013B5D
:10657000CB1A921C03E013F8015B01F8015B521E79
:10658000F9D5A142D8D3002070BD00002DE9F84311
:106590000025DFF894804FF4807601242F46009583
:1065A000304604F003FB38B1D8F80403204203D08E
:1065B000304604F0F1FA2543361D64007F1CB6B264
:1065C000082FEDD34FF4BE74204604F0EFFA48B123
:1065D000204604F0E1FA45F000456A46012100201A
:1065E00004F07CF915F0FF0F16D0012600242E428E
:1065F0000ED008EB8401D1F81005D1F81015C0F3C6
:1066000004200A4AC1F3014152F8242002B1904704
:106610007600641C082CEAD3002D02DA684606F0E6
:1066200021FDBDE8F8830000006000400851002013
:1066300070B54FF48076304603F02AFE114CB50554
:1066400060B1304603F02BFE0120C5F808036079E5
:1066500020B9012060712168002088474FF48276BC
:10666000304603F015FE00280AD0304603F017FE2E
:106670000220C5F808032168BDE8704001200847E2
:1066800070BD0000E83300200149024802F0CABF93
:106690000834002000C0014002490248091F09686F
:1066A000006808474834002000F012BA70B50E4662
:1066B000144900EB400001EBC0051446E86A1835A8
:1066C00020B101280FD0022805D113E0284600F0A0
:1066D00033FAA04201D2002411E022463146284676
:1066E00000F06FFA0BE0284600F026FAA042F4D240
:1066F0000446F2E73146284600F036FA04462046C2
:1067000070BD0000485800200149024807F026BA31
:10671000885100200030004002494FF0402006F030
:10672000E5BF0000BC5100200149024802F032BF21
:10673000645100200030024005F05CB82DE9F041C2
:10674000A949AA484FF080540B68D4F8302100784A
:10675000D4F83411551CC0F3031006D09446012719
:106760000026BCF1060F03D00AE003F0FF0CF6E7A9
:10677000B4F82453DFF878C2C5F30425CCF80050F0
:1067800003F0FF0CBCF1060F06D1032804D1DFF89B
:1067900068C2984DCCF87450551C05D04FEA020CD5
:1067A000BCF1060F03D00AE003F0FF0CF8E7D4F8C1
:1067B0004452DFF848C2C5F34235CCF8005003F02C
:1067C000FF0CBCF1060F08D1032806D18C4DD5F87B
:1067D00000C02CF0807CC5F800C0551C04D0944645
:1067E000BCF1060F03D00BE003F0FF0CF8E74FF00D
:1067F0008045C5F80C61C5F81061804D2D1F2E60D5
:10680000DDB2062D08D1032806D1DFF8F0C103253B
:106810000CF1640CCCF80050DDB2062D10D1032829
:106820000ED1DFF8E0C10525CCF80050754D783564
:106830002F60744D08352E600CF104063F2535603D
:10684000551C04D016460D46062E03D05BE0DEB282
:106850000546F9E7ED1E012D55D96B4D2D686B4EA0
:106860003560694D2D1D2D68361D3560664D083526
:106870002D68361D3560644D0C352D68361D35602C
:10688000614D10352D68361D35605F4D14352D680E
:10689000361D35605C4D18352D685C4E20363560F0
:1068A000594D1C352D68361D3560574D20352D68E6
:1068B000361D3560544D24352D68361D3560524DDA
:1068C00028352D68361D35604F4D2C352D68361D09
:1068D00035604D4D30352D684C4E403635604A4D53
:1068E00034352D68361D3560474D38352D68361DD9
:1068F0003560454D3C352D68361D3560424D40357F
:106900002D68361D3560551C03D01646062E02D064
:1069100007E0DEB2FAE7D4F858523D4E05F04F05D5
:106920003560551C03D01346062B02D008E0DBB2BD
:10693000FAE738480368DB0702D06FF00103036011
:10694000062A07D1C91E022904D93348016841F437
:10695000806101602A487438016841F47001016067
:10696000BFF34F8FBFF36F8FD4E94C104FF010235C
:10697000062907D1C01E032804D9D3F808021F49ED
:106980001C310860D3F80C02244AC0070CD0012047
:1069900006F080F9D3F80C0220F00100C3F80C02D5
:1069A00010680028FCD015E0D3F80002002803DBB3
:1069B000D3F80402002812DA012006F06BF9152042
:1069C000C3F8000211680029FCD0C3F80402106863
:1069D0000028FCD0002006F05DF900F013F9114901
:1069E0000F480860BDE8F081E00F00F0E80F00F00C
:1069F000403501400DF0ADBA00C007403C050040F5
:106A0000FCED00E0105600400404001020C50040DA
:106A1000E40E0040000400403C17004000E4014048
:106A20000090D003BC3400202DE9F047104E04271D
:106A300000244FF4A0784FF4803900BF08EB8405A0
:106A400009FA04F0715961B1D6F80413014208D073
:106A50002946304605F0C4F80648D0E9002128460A
:106A60009047641CE4B2BC42E8D3BDE8F087000064
:106A700000900040E451002010B5054C206818B982
:106A800004A1512000F0CCFB2068BDE81040004775
:106A9000F03300202E2E5C2E2E5C2E2E5C2E2E5CD3
:106AA0002E2E5C2E2E5C6D6F64756C65735C6E7241
:106AB00066785C647269766572735C7372635C702D
:106AC00072735C6E7266785F7072732E6300000082
:106AD00010B5124C02202061606111A0A06104F188
:106AE0007800E0614FF4806020620020A062606264
:106AF0000BA1A164E06204F58F61E1641021A0653F
:106B0000C4E91410E06509A1E01DFFF7E8FC08A145
:106B10002046FFF7E4FC2020A07110BD485800205B
:106B20005465726D696E616C00000000525454002F
:106B300053454747455200000269C1688A4203D85D
:106B40008068401A104400E0501A401E7047002828
:106B500009DB00F01F02012191404009800000F193
:106B6000E020C0F8801270472DE9F047C46817464E
:106B7000894606464FF000083069A04201D9051B3E
:106B800002E0B168201A0D1AB0686D1E001BA84201
:106B900000D80546BD4200D33D4670682A462044D1
:106BA0004946FFF771FCB0687F1B2C44A844A944F8
:106BB000A04200D10024F460002FDDD14046BDE8A2
:106BC000F0872DE9F04104468846D4E90207C51B49
:106BD000E168606816460844B54206D94146FFF7A9
:106BE00053FCB819E060BDE8F0812A464146FFF742
:106BF0004BFC761B08EB050132466068FFF744FC4E
:106C0000E660F0E7BFF34F8F05480168054A01F4DD
:106C1000E06111430160BFF34F8F00BFFDE700004B
:106C20000CED00E00400FA0502E008C8121F08C1DC
:106C3000002AFAD170477047002001E001C1121FFD
:106C4000002AFBD1704700000121202803DA81408F
:106C50000548014003E0402802DA2038814009B1AC
:106C60000120704700207047FC06FFBD90F824000B
:106C7000012801D01F207047EE20704710B5012277
:106C80000221002001F0C2FA08B1072810D1072222
:106C90000221012001F0BAFA08B1072808D1002129
:106CA0000A22084601F0B2FA08B1072800D10020F4
:106CB00010BD000000B5ABB0AC216846FFF7FDFB8E
:106CC00002208DF8000000208DF8020005208DF8CC
:106CD00003000120ADF84C008DF87C000C494020E9
:106CE0001491229044F2506023900A4829906946FA
:106CF000094800F0B8FB20B1084A40F27921FFF7BB
:106D000089FA0121044800F0ABFB2BB000BD000064
:106D1000D6310020ADCC0200D43700209887020085
:106D2000FEB515460E46074672B604F0D9F900BF07
:106D300004F014F80028FBD12249234A0120891AC3
:106D4000C90800EB0144012F22D06FF4805038189D
:106D500021D0B0F5405F23D06FF44051C8422046A7
:106D600005D1D5E9003219A104F01FF903E032463C
:106D70001DA104F013F922480068C00700D000BE2E
:106D80002A4603B031463846BDE8F04000F07AB8F4
:106D900020461CA101E0204622A104F0FBF8EAE70E
:106DA000A86804F013FF0346D5E90001CDE90010FF
:106DB0000296204624A1AA6804F0FFF820462CA1E0
:106DC000EBE7000000F1020070F002004153534570
:106DD0005254494F4E204641494C4544206174204D
:106DE00025733A2575000000554E4B4E4F574E20E7
:106DF0004641554C54206174203078253038580075
:106E0000F0ED00E0534F46544445564943453A207F
:106E1000415353455254494F4E204641494C4544F5
:106E200000000000534F46544445564943453A201C
:106E3000494E56414C4944204D454D4F52592041F1
:106E400043434553530000004552524F522025758D
:106E5000205B25735D2061742025733A25750D0A2A
:106E600050432061743A2030782530387800000093
:106E7000456E64206F66206572726F722072657055
:106E80006F72740008B501238DF800309DF8003052
:106E9000144B186059609A606FF48041401807D015
:106EA00001280FD1DA60D86800689861D86807E0D7
:106EB0001A611869806858611869006898611869D2
:106EC0004068D861186858689868D868186958691F
:106ED0009869D86972B600BF9DF800000028FBD100
:106EE00062B608BDF0510020014801F0B9BD0000B4
:106EF0002834002070B514460E46050004D10DA1BB
:106F000040F25A2000F08CF95CB128684FF0FF3253
:106F1000012E4461C0E902220AD000210161002053
:106F200070BD04A140F25B2000F07AF9072070BD2B
:106F30000121F3E72E2E5C2E2E5C2E2E5C2E2E5C75
:106F40002E2E5C2E2E5C636F6D706F6E656E74738B
:106F50005C6C69627261726965735C74696D65729B
:106F60005C6170705F74696D6572322E6300000041
:106F700038B5114808235822416800910F4900682C
:106F800002F0ABFE002815D10D4A69460D4801F00C
:106F90006BFD04000ED101210A4801F056FE0123C9
:106FA000094A1946074801F011FD06490120083930
:106FB0000870204638BD000084E402002052002002
:106FC00041D2020028340020FFFF7F00F8B51746A9
:106FD0000D46040004D115A140F26B2000F020F909
:106FE00000268DF80060684600F084F8D4E90201BC
:106FF000C04370EA010005D09DF8000000F0C6F81B
:107000000020F8BD02F01AF840197141C4E90201EC
:107010009DF8000000F0BAF8A761206900B1256171
:107020002146BDE8F840002006F00ABD2E2E5C2E59
:107030002E5C2E2E5C2E2E5C2E2E5C2E2E5C636F14
:107040006D706F6E656E74735C6C6962726172698B
:1070500065735C74696D65725C6170705F74696D95
:107060006572322E6300000038B5040004D112A10D
:1070700040F2932000F0D4F800208DF8000068461C
:1070800000F038F8D4E90201C04370EA01000DD0E5
:107090004FF0FF30C4E902009DF8000000F076F8E0
:1070A0002146BDE83840012006F0CABC9DF800002A
:1070B00000F06CF8002038BD2E2E5C2E2E5C2E2E9B
:1070C0005C2E2E5C2E2E5C2E2E5C636F6D706F6EB0
:1070D000656E74735C6C69627261726965735C740D
:1070E000696D65725C6170705F74696D6572322E76
:1070F0006300000070B5044606F088F8012803D04C
:1071000010A1432000F08CF8EFF3108172B61D4AF5
:107110009368012083B990604FF0E020D0F880514F
:10712000194B1D401560C0F88031D0F88431536090
:107130004217C0F8842100202070002900D162B6D7
:1071400070BD00002E2E5C2E2E5C2E2E5C2E2E5C32
:107150002E2E5C2E2E5C636F6D706F6E656E747379
:107160005C6C69627261726965735C7574696C5C90
:107170006170705F7574696C5F706C6174666F725A
:107180006D2E630078520020FC06FFBD10B504464A
:1071900006F03CF8012803D00DA1512000F040F882
:1071A0001B498868002811D0002C0FD1EFF3108004
:1071B00072B60B684FF0E022C2F800314B68C2F89B
:1071C000043100228A60002800D162B610BD0000A0
:1071D0002E2E5C2E2E5C2E2E5C2E2E5C2E2E5C2EE9
:1071E0002E5C636F6D706F6E656E74735C6C69623C
:1071F0007261726965735C7574696C5C6170705FF3
:107200007574696C5F706C6174666F726D2E63006B
:1072100078520020400C01D00020704701207047B8
:107220000A4601460148FEF7F5BF0000EFBEADDE9D
:1072300070B51500044609D00020286034B12068DC
:1072400020B1A079800703D0072070BD0E2070BD4B
:10725000084600F005FBC0B2142804D02179814211
:1072600003D8042070BD052070BDE288216800FBB2
:1072700002102860002070BD2DE9FC47002517880A
:107280000646158090F82D001446894630B13A46DE
:107290002146484600F0F8FA051E09D1B0784FF0B3
:1072A0000C0A18B32088C846001DB84202D95046BF
:1072B000BDE8FC87684679DF0028F9D120880321E2
:1072C00008F8001020881921401C80B2208008F89E
:1072D00000102088401C80B2208000EB0801BDF81F
:1072E000000006F0A7FE218808442080F0780222E2
:1072F000C8B1218896F9033001F1030C4846BC451A
:10730000D5D8425421884FF0010C491C89B2218004
:1073100000F801C02188491C89B2218009F8013098
:107320002088401C20807068B8B1218890F9003016
:1073300001F1030C4846BC45B9D8425421880A22C1
:10734000491C89B2218042542188491C89B221807C
:1073500009F801302088401C2080308950B1CDE9E7
:1073600000474B460622022106F1080006F014FFF2
:10737000051E9DD1308A50B1CDE900474B4607220A
:10738000032106F1100006F007FF051E90D1308B97
:1073900050B1CDE900474B461522142106F11800E3
:1073A00006F0FAFE051E83D1306A30B13B46224614
:1073B000494601F018FA051EDBD1706A30B13B4630
:1073C0002246494602F07CFB051ED2D196F82C00DD
:1073D00038B13B4622464946304606F097F8051E2E
:1073E000C7D1307838B13B4622464946304602F094
:1073F00021FC051EBDD128465AE718B504460020D9
:10740000ADF8000013466A46204600F006F8002852
:1074100002D0BDF80000204418BD70B5E0B1DAB16B
:10742000002402E0045D2C44A4B2651C8D4206D207
:107430001688A642F6D8061976789E42F2D18C427A
:107440000AD2A31C005D9BB200B1401E0004000CD8
:1074500002D01C188C4201D9002070BD138070BD71
:1074600080F8301070472DE9F0410D00044606D039
:107470002CB195F87A000026012803D006E00E20F2
:10748000BDE8F08195F89800012829D0D5F8A00032
:10749000042825D0D5F89C00042821D04FF00108FD
:1074A000A6702C2205F17801201DFEF7EDFF84F86F
:1074B0003060D5F8A4006063D5F8A800A0634FF64B
:1074C000FF70A4F8240404F58260C4F82004C4F812
:1074D0002664A4F82A6484F82C64207810B104E0AF
:1074E0000720CDE7FF2084F8540004F1550720461B
:1074F000C4F81074FFF7BAFBA4F8140404F21442A1
:1075000039462846FFF7B8FE0028B9D104F23120E9
:10751000C4F818042046FFF7A9FBA4F81C0404F2E1
:107520001C4205F13C00D4F81814FFF7A5FE002812
:10753000A6D184F85180208BA4F8480084F83C80C0
:10754000266484F85060606900216064454604F157
:107550003C02781E72DF002892D1257090E710B5AA
:107560000288102A1BD0112A20D0262A1DD1007A89
:107570000C46012801D0022817D1A0780521401C13
:10758000B0FBF1F201FB1201204600F01DF80028CB
:107590000BD0A16B002908D0BDE810400847C27B82
:1075A000012A02D18088A1F8240410BD0C460021D4
:1075B00084F82E148088B4F824148842F5D12079F8
:1075C0000028F2D10121DFE72DE9F05F04460078C1
:1075D0000F4698B1A7700025C4F82654A4F82A5481
:1075E00084F82C54A079012608B1012F09D0E07944
:1075F00080B1012F05D0022F03D00BE00820BDE899
:10760000F09F616B21B184F82D640820884701E068
:1076100084F82D5404F2274100200A5C0AB1304658
:1076200003E0401C0628F8D300204FF002084FF07A
:10763000030B012F06D0022F0CD0032F0FD0042FE5
:1076400015D110E0A17929B194F8241011B908B12D
:1076500030460DE0E17911B108B1404608E0207AEA
:1076600008B1584604E0607A08B1042000E02846DA
:10767000A070616B41B1032801D0042804D1607966
:1076800010B194F82E0498B184F82F5404F13C0002
:1076900018210746FEF711FF84F83C6004F12C0026
:1076A00005F09CFC58B194F82C0084F8510008E0D7
:1076B00084F8305484F82F6407208847E6E784F87C
:1076C000516094F8240058B104F1280005F086FCBC
:1076D00020B194F8280084F8520001E084F8526048
:1076E00084F85050A27804F2264104F582694FF0E4
:1076F000060A052A64D2DFE802F07C030F2242006A
:1077000084F83160C4F82054C4E9101584F83C8032
:107710008020A4F8480055E084F8318094F82420B3
:10772000384612B10722027001E080F800B0228AC8
:107730008281C4F820544160E168B96042E0606928
:10774000B860208BB88194F824003D46002820467C
:1077500002D084F83CA001E084F83C6006F0FEFC16
:1077600050B185F814800421204601F0CAFB38BBD3
:10777000052184F8311021E084F831B01EE0E06981
:10778000B860208CB88194F824003D46002820463B
:1077900002D084F83CA001E084F83C6006F0DEFCF6
:1077A00048B185F814800421204601F0AAFB38B9BD
:1077B00084F831A002E0042084F83100C4F8209459
:1077C000A07878B13A4604F15400D4F8201472DF5E
:1077D00000287FF414AF94F8301094F8540073DF4D
:1077E0000028F6D1616B11B194F831008847002070
:1077F00005E784F83150F5E770B5040012D0014672
:107800001C221448FEF740FE1248134D0560206804
:1078100050B17ADF002806D12068016829604068ED
:10782000686005E00E2070BD0B487BDF0028FAD1B0
:1078300008484FF6FF711438084A20F8041B054920
:10784000343901600021FFF755FB0028EBD00320FD
:1078500070BD00005C500020E0330020F5E0020025
:1078600010B5044600F006F808B1204610BD1420FB
:1078700010BD0000142801D30020704701460148C4
:1078800002F075BA7C5000207CB5054608880C468D
:107890000930904201D90C207CBD68466DDF00287C
:1078A000FAD121880820685420881B21401C80B20E
:1078B000208029542088401C80B220802844DDF894
:1078C00001100160BDF8051081802088801D80B204
:1078D00020809DF80010490800D0012129542088FB
:1078E000401C208000207CBD2DE9FC41444C0188D7
:1078F000424FB4F802C0054621295FD01EDC414A40
:10790000414B4FF00300A3EB02024FEAD20600EB1B
:107910000640102921D0112947D013290CD100236A
:107920001A46852160467FDF002805D037A24FF434
:10793000BE7100BFFEF76EFCBDE8FC813B2953D051
:10794000522946D05629F7D18088132176DF0028A6
:10795000F2D02EA24FF4C871ECE730A103F01AFB6D
:10796000072000F075FC20B128A24FF4A771FEF7A4
:1079700051FCA98861802C4802F012FC20B123A29E
:1079800040F25111FEF746FC4FF0010E84F800E082
:1079900038680090A88869468FDF0200CCD00EEBD3
:1079A000064022A103F0FAFAC6E72CA103F0F2FA8E
:1079B0004FF6FF70608000202070BDE7786801906E
:1079C000A88801A98FDF0028B6D010A24FF4BB71A0
:1079D000B0E700231A4619466046B1DF0028ABD055
:1079E0000AA24FF4C171A5E78088132176DF002831
:1079F000A2D006A240F289119CE7000058E30200E1
:107A0000D031002070F0020000F102002E2E5C2E1A
:107A10002E5C2E2E5C6D61696E2E6300436F6E6E60
:107A20006563746564000000C837002073645F629A
:107A30006C655F6761705F636F6E6E5F70617261CE
:107A40006D5F7570646174652829206661696C6575
:107A5000643A20307825782E000000004469736372
:107A60006F6E6E65637465640000000010B51A4C9B
:107A70000188606810290ED011292BD1401E60604A
:107A800028D1FFF7FBF8002824D02168002921D055
:107A9000BDE810400847D0B900210122084600F097
:107AA000B5FB08B107280FD107220221012000F001
:107AB000ADFB08B1072807D104220221002000F005
:107AC000A5FB20B1072802D0216801B18847606872
:107AD000401C606010BD0000D83300202DE9F04745
:107AE00001883B4E40F2F3194FF6FF7510291BD069
:107AF00011293ED0122954D0502946D1C188F2898B
:107B0000841D914241D1618902293ED18688304647
:107B100001F0C8FC050038D004F10C0000F0E2F9D7
:107B2000A8B3294630464EE0C17B87880446012928
:107B30002BD1A846284601F0B5FC050017D02F80B0
:107B400000202872234843464A460168C5F80A10B7
:107B50004068C5F80E0004F1100105F10A0001F0BB
:107B6000C0FD6872F08900280FD129462AE0042060
:107B700013E0808801F096FC040006D06068FFF7EF
:107B800073FA08B105F092FC2580BDE8F087FFE7A5
:107B90006868FFF769FA0028F7D0BDE8F04705F0FC
:107BA00085BC87880646384601F07CFC0400ECD092
:107BB0002B464A4606F1080104F10A0001F091FD46
:107BC000607221463846BDE8F04700F05DBE000017
:107BD0005C500020E03300202DE9F04F04468688F9
:107BE0000188434897B0834610290CD0112952D000
:107BF000103019296CD01A2976D1217A0C09042C5D
:107C00004FD301224EE03A4D083DA868C0430B9087
:107C100069680BA802F0CCF80B990CA800F0C4FD21
:107C20002C220CA96846FEF72FFC0027E946A8463F
:107C300010E000BF09EB47005FF00005B0F804A0BA
:107C400008EB85005146001D02F086F86D1C1E2DC4
:107C5000F6D37F1C0098B842ECD8142E07D317B087
:107C6000F021BDE8F04F23A20420FEF7D3BA31463D
:107C7000584602F087F8314608F1040002F082F815
:107C8000E07B022830D117B03146BDE8F04F1848EC
:107C9000001D02F077B817B03146BDE8F04F02F092
:107CA0005BB80022314601F027F9032C01D30122F1
:107CB00000E000220E4831460C3001F01DF9022C84
:107CC00001D3012200E0002209483146083006E0D5
:107CD000217A002908D1617AC1F3C002314617B078
:107CE000BDE8F04F01F008B917B0BDE8F08F000013
:107CF000805000202E2E5C2E2E5C2E2E5C2E2E5CB4
:107D00002E2E5C2E2E5C636F6D706F6E656E7473BD
:107D10005C626C655C636F6D6D6F6E5C626C655F01
:107D2000636F6E6E5F73746174652E630000000094
:107D300070B5334D04008EB02DCD08AE86E82D0011
:107D40005BD0E9B30868A061214608A862DF00287B
:107D500051D1207801258DF83200ADF83050A21CA9
:107D60000CA92846A8DF002845D120216846FEF747
:107D7000A4FB0220ADF8000020788DF802008DF8F9
:107D80000C509DF80D00F426ADF8046040F00C0096
:107D90008DF81150ADF806508DF80D008DF8125089
:107DA000608804F10C02694600F0EEFB002822D145
:107DB00020216846FEF781FB0320ADF8000000E0BB
:107DC0001BE020788DF802008DF80C509DF80D0016
:107DD0008DF81150ADF8046040F010008DF812508D
:107DE000ADF806508DF80D008DF813506088221DF7
:107DF000694600F0C9FB0EB070BD0E20FBE7000025
:107E000040E4020070B588B00446002927D0002C59
:107E100025D008462188102923D0502927D057295A
:107E20001DD10546A188406906AAFFF701FA00287E
:107E300015D1069E3078002811D0A86900280ED0F0
:107E400018216846FEF739FB01208DF800000195E6
:107E5000A088ADF808000396A9696846884708B06D
:107E600070BD08B02146BDE8704004F095BF08B071
:107E70002146BDE8704005F06FB80000F0B5074638
:107E800085B000200D46ADF800000446134E21E0F9
:107E90003078002820D0291BF42903DBF420ADF82A
:107EA000000001E0ADF800100D49D1E90801CDE96D
:107EB00001010A4801A90C308088ADF80400381986
:107EC000CDF80CD004907088AEDF18B9BDF8000072
:107ED000204484B2AC42DBDB05B0F0BDD0310020E1
:107EE00058E30200007800F0010070471FB503F06E
:107EF00047FC20B1144A40F2A311FEF78BF900248D
:107F000069460120009403F0B3FA20B10E4A40F212
:107F1000A911FEF77FF9019401208DF804000720D4
:107F20008DF806000294039401A92120009A69DFCC
:107F3000684603F035FB002804D0034A4FF4DB7198
:107F4000FEF768F91FBD00009887020010B50446CF
:107F5000042803D303A1CB20FFF762F90D48005D8D
:107F600010BD00002E2E5C2E2E5C2E2E5C2E2E5C64
:107F70002E2E5C2E2E5C636F6D706F6E656E74734B
:107F80005C626F617264735C626F617264732E63B2
:107F9000000000008CE3020038B50446042803D337
:107FA0000BA15F20FFF73CF91548005D0090684683
:107FB00002F0C8FCD0F80425009B0121994021EA79
:107FC0000203C0F808351140C0F80C1538BD000098
:107FD0002E2E5C2E2E5C2E2E5C2E2E5C2E2E5C2EDB
:107FE0002E5C636F6D706F6E656E74735C626F6133
:107FF0007264735C626F617264732E6300000000D0
:1080000088E3020010B50446042803D305A14720E5
:10801000FFF706F90F480121005DBDE8104002F0AE
:10802000A7BD00002E2E5C2E2E5C2E2E5C2E2E5C0C
:108030002E2E5C2E2E5C636F6D706F6E656E74738A
:108040005C626F617264735C626F617264732E63F1
:108050000000000088E3020010B50446042803D3A2
:1080600005A14120FFF7DCF80F480021005DBDE8C5
:10807000104002F07DBD00002E2E5C2E2E5C2E2EB8
:108080005C2E2E5C2E2E5C2E2E5C636F6D706F6EE0
:10809000656E74735C626F617264735C626F61724F
:1080A00064732E630000000088E3020038B50446C4
:1080B000042803D30AA13A20FFF7B2F81448005D60
:1080C0000090684602F03EFCD0F804050099C840D4
:1080D00010F0010000D0012080F0010038BD000048
:1080E0002E2E5C2E2E5C2E2E5C2E2E5C2E2E5C2ECA
:1080F0002E5C636F6D706F6E656E74735C626F6122
:108100007264735C626F617264732E6300000000BE
:1081100088E3020010B500242046FFF773FF641CBB
:10812000042CF9D310BD10B500242046FFF794FFAE
:10813000641C042CF9D310BD10B50246064B4FF059
:10814000FF3000215C5C944201D1084610BD491CFF
:108150000429F7D310BD00008CE3020010B5002005
:1081600000F066F908B1062806D1012000F060F998
:1081700008B1062800D1002010BD00002DE9F0470D
:108180000D468146FFF7D8FF0446042836D2DFF8B3
:1081900074801B481C4EA8F10C0725B3012D0ED08E
:1081A000022D2BD104EB440030444578002D25D01E
:1081B000B968002922D02846BDE8F047084704EBFB
:1081C0004401755C0E44717849B10E4A4FF4804108
:1081D000093A8068FEF7FAFE08B987F80390B1788B
:1081E00008F80410E2E78068FEF73EFF04EB440164
:1081F000314418F804008D78A842D7D0BDE8F08744
:10820000FCE30200703300201550002070B50023FD
:10821000042810D20D4D00EB4004012A02D101299F
:108220000CD00022094E00EB4000304461B101291E
:1082300006D0022906D00723184670BD0E30C2B200
:108240002A55F9E74270F7E78270F5E715500020EC
:10825000044A014600201279D20702D0084600F0F5
:1082600003B87047643300202DE9F05F6E4C05467B
:1082700000266078B34618B184F801B001F05AFACC
:108280006A4F4FF47A694FF4C87A4FF00108182DFD
:1082900069D2DFE805F00C1313384754696E727B1E
:1082A000727BC58484848484B3B6B9BCC5C501F02F
:1082B00041FA3868FEF7D8FE06465CE00020FFF77A
:1082C000F5FE00284FF0000008D0FFF79BFE022DBE
:1082D00002D14FF4E16008E0484606E0FFF7BCFE3B
:1082E000022D01D1C82000E05046410CC0034FF4DC
:1082F0007A72801841F10001257052000023FEF7C8
:108300007FF801462AE00020FFF7D0FE00284FF05A
:10831000000004D0FFF776FE4FF44870E5E7FFF762
:108320009BFEDFE70020FFF7C1FE00284FF00000B2
:1083300002D0FFF767FECFE7FFF78EFED4E70020FD
:10834000FFF7B4FE00284FF0000002D0FFF75AFEFE
:1083500001E0FFF781FE257040F6CD41002238682C
:10836000FEF734FE064646E00020FFF715FE2570B6
:1083700008E0002051E025703DE084F801800120F4
:10838000FFF70AFE002240F26661E8E784F8018008
:108390000120FFF701FE00224FF40051DFE778686B
:1083A000FEF762FE0646D5F1110000D02EB1022084
:1083B000FFF728FE84F802B01DE0012816D980B22C
:1083C000C8214843C117C90341EA5041C0034FF4D3
:1083D0007A72801841F1000152000023FEF710F874
:1083E000014600227868FEF7F1FD06460220FFF7FD
:1083F00033FE84F802803046BDE8F09F01F09AF920
:10840000B9E701F097F9B4E701F094F904E001F05D
:1084100091F90020FFF720FE0120FFF71DFEAAE7DB
:10842000FFF781FEA7E7000064330020FCE30200B1
:10843000012105F019BF00002DE9F84F0546861C03
:1084400000208DF8000091460F464FF0010A684663
:10845000FEF750FE1B4C04F21C4860683860D4E9FB
:108460000101194F401A3968081A0EE001214046EF
:1084700001F098FC01F084F90146404601F092FCBD
:10848000D4E90101401A3968081A401C8642EDD827
:10849000B9F1000F03D0052065F3891002E0062032
:1084A00065F39F5061683A68114004EB8101C86030
:1084B0006068304460609DF80000FEF767FE50463B
:1084C000BDE8F88F285400206434002070B50D46B4
:1084D00004460A2902D10D21FFF7F8FFA06822689F
:1084E000411CA1601554D4E90101814204D3204606
:1084F000BDE8704001F0EABF70BD0000044881682B
:108500004068814201D1012070470020704700007F
:108510002854002005494FF0FF32082841F8202058
:1085200002D3084480F8482070470000085100201A
:10853000F0B54FF0FF3512B10023082601E0082303
:108540000C260C4C05E000BF54F823707F1C04D0AF
:108550005B1CB342F8D32846F0BD26185DB286F8FE
:10856000305044F82310002AF5D1E11881F8480072
:10857000F1E70000085100200249084490F930005A
:1085800070470000085100202DE9F04381468878AB
:1085900091B090460C4600B901208DF83E0020882D
:1085A000ADF83C0000250095607C694604F0F2FFC0
:1085B0006E46A07C711C04F0EDFFE07B00289DF866
:1085C000020002D040F0080001E020F008008DF821
:1085D0000200217C11B140F0100001E020F01000F9
:1085E0008DF80200217B11B140F0010001E020F084
:1085F00001008DF80200217D09B1022100E0012176
:1086000061F342008DF802001C2102A8FDF755FF1E
:10861000607BC10601D4800617D50E950EAFE07CB5
:10862000791C04F0B7FF9DF83800079720F00F0081
:10863000401C20F0F00010308DF838009DF83A0012
:1086400020F00600801C8DF83A00607B8DF8080051
:10865000A07B8DF80900142109A8FDF72EFF0FA8B3
:10866000CDE90906A088ADF83000A06820B1E08807
:10867000ADF82C00A0680D90A06998B30195008812
:10868000ADF81000A06901AD01A94088ADF8120055
:10869000A069406806950390A069007B04F07AFF0A
:1086A000A069691C407B04F075FFA069807A0028EE
:1086B0009DF8060002D040F0080001E020F008001C
:1086C0008DF80600A169C97A11B140F0100001E0EF
:1086D00020F010008DF80600A169097A19B140F068
:1086E000010002E00DE020F001008DF80600A16914
:1086F000897B09B1022100E0012161F342008DF87C
:108700000600E06900B10590434609AA02A948465F
:10871000AADF11B0BDE8F08370B5084C050009D0A0
:1087200010342168002907D008682060496828466D
:108730008847F6E70834F4E770BD0000F4500020E5
:10874000054A012120B1012805D19170FFF7E4BF4E
:1087500051700020FAE77047F450002010B5D0E9BE
:108760000234D1E90220D11AA04101D3012010BD69
:10877000002010BD1CB50021009101918DF8000072
:108780006946022067DF002804D003A240F2C92115
:10879000FDF740FD1CBD00002E2E5C2E2E5C2E2E03
:1087A0005C6D61696E2E630073B58CB00646002067
:1087B00000900D9880B100246D4621460DA801F06F
:1087C000D6FA30B1009805EB400084800098401C38
:1087D0000090641C142CF0D32C2269463046FDF71F
:1087E00053FE0EB070BD2DE9F04117880646B81D46
:1087F00014460D46984202D90C20BDE8F08131881C
:10880000072206290AD34FF4486C4FF6FF736145DF
:1088100001D9994202D17088062801D21046ECE7AE
:10882000604501D99842F9D1994203D0984201D0CC
:108830008142F3D80520E85520881221401C80B2DF
:10884000208029542088401C80B220804119308823
:1088500005F0F0FB2188084480B22080411970881F
:1088600005F0E8FB2188084420800020C5E70000CF
:1088700001A2F721FDF7CEBC2E2E5C2E2E5C2E2EF3
:108880005C6D61696E2E630038B54A7A0F4B62B138
:1088900000220A725969002906D001228DF80020B1
:1088A000ADF802006846884738BD0A7A62B19B6815
:1088B0004C68024619462046FEF788FB0028F3D094
:1088C000BDE8384004F0F2BD5B68F1E75C50002081
:1088D00070B588B00646002005900690ADF81410DB
:1088E000ADF816100190029001AA05A9304690DF5C
:1088F000050021D003F06AF90346114811493246B8
:10890000401AC108012000EB014004460E4902F064
:108910004CFBBDF8042012B9BDF8060028B1BDF823
:108920000630204609A102F040FBBDF808201AB12C
:108930002046164902F032FB08B0284670BD000000
:1089400070F0020070F0020070E7020054686520C9
:108950007265717565737465642054582F52582080
:108960007061636B6574206C656E677468206973F1
:1089700020746F6F206C6F6E672062792025752FD1
:108980002575206F63746574732E0000BCE70200C8
:1089900010B50021024801F016FA80F3100010BD56
:1089A000445800204FF4803202FA01F100F036BA48
:1089B00000684FF4A86202EB8101405870474FF401
:1089C000A07202EB810189B200F068BA2DE9F04192
:1089D000984617460E46050003D113A19620FEF7D0
:1089E0001FFC4FF4A07000EB860081B228684FF4A2
:1089F0008034B44027F07F47C0F808432868C0F8A7
:108A00004843286802F024FD286800EB8600C0F87F
:108A100040752868C0F84443B8F1000F02D02868B8
:108A2000C0F80443BDE8F0812E2E5C2E2E5C2E2E65
:108A30005C2E2E5C2E2E5C2E2E5C636F6D706F6E26
:108A4000656E74735C6C69627261726965735C7483
:108A5000696D65725C6472765F7274632E63000088
:108A60000068D0F8040570472DE9F04716460D461A
:108A7000040003D136A15520FEF7D2FB1DB934A165
:108A80005620FEF7CDFB1EB931A15720FEF7C8FBDB
:108A900060793D49DFF8F09041F82060617909F193
:108AA000040909EBC1003A4902793848401AC7085D
:108AB0002AB10824022000EB074036A143E02E88AB
:108AC000D4F80080B6F5805F04D33BA14FF4BE70AC
:108AD000FEF7A6FBC8F80865AD7894F90460A81EF7
:108AE000022806D3681F032803D33FA16B20FEF79B
:108AF00097FB002E4FEA451004DB06F1E02686F8CE
:108B0000000405E006F00F0101F1E02181F8140DE9
:108B100094F904000121002809DB00F01F0201FA8A
:108B200002F24009800000F1E020C0F800216279E3
:108B3000032009EBC20200EB07401171617949F88B
:108B40003140002434A102F025FA2046BDE8F08728
:108B50002E2E5C2E2E5C2E2E5C2E2E5C2E2E5C2E4F
:108B60002E5C636F6D706F6E656E74735C6C6962A2
:108B70007261726965735C74696D65725C6472764A
:108B80005F7274632E63000044340020E8F002003A
:108B900070F0020052544320696E7374616E636515
:108BA00020616C726561647920696E697469616CB9
:108BB000697A65642E0000002E2E5C2E2E5C2E2E0F
:108BC0005C2E2E5C2E2E5C2E2E5C6D6F64756C659B
:108BD000735C6E7266785C68616C2F6E72665F7231
:108BE00074632E68000000002E2E5C2E2E5C2E2E4C
:108BF0005C2E2E5C2E2E5C2E2E5C696E7465677268
:108C00006174696F6E5C6E7266785C6E7266785FB6
:108C1000676C75652E6800005254433A20696E698E
:108C20007469616C697A65642E00000090F9040033
:108C3000002809DB00F01F0201219140400980005B
:108C400000F1E020C0F8001270470A46022100F04F
:108C5000F7B84FF4827100F021B9000010B504009C
:108C600003D104A18720FEF7DBFA2068012101600F
:108C700010BD00002E2E5C2E2E5C2E2E5C2E2E5C47
:108C80002E2E5C2E2E5C636F6D706F6E656E74732E
:108C90005C6C69627261726965735C74696D65723E
:108CA0005C6472765F7274632E63000010B504001A
:108CB00003D104A18D20FEF7B3FA206801214160A1
:108CC00010BD00002E2E5C2E2E5C2E2E5C2E2E5CF7
:108CD0002E2E5C2E2E5C636F6D706F6E656E7473DE
:108CE0005C6C69627261726965735C74696D6572EE
:108CF0005C6472765F7274632E6300002DE9F05F2E
:108D00009B4615460C46060003D136A1CD20FEF742
:108D100087FA4FF4803000FA04F84FF4A07000EBAB
:108D200084001FFA80FA25F07F454146304600F066
:108D300075F83068D0F8047500EB8401D1F84095DF
:108D4000C1F840755146306802F082FBA9EB07007C
:108D500020F07F40012806D1102002F0FFFF51468D
:108D6000306802F075FB3068D0F80475C0F84483B1
:108D7000E91B21F07F423068012A00EB840010D00B
:108D8000C0F840553068D0F804156FF07F476A1A74
:108D9000521E22F07F42A7EB0B03934217D362B11E
:108DA00018E06D1CC0F84055102002F0D7FF306865
:108DB000D0F80405B8420AD10CE000EB84006D1C29
:108DC000C0F840553068D0F80405884202D00D2024
:108DD000BDE8F09F01224146304600F031F8002006
:108DE000F6E700002E2E5C2E2E5C2E2E5C2E2E5CC6
:108DF0002E2E5C2E2E5C636F6D706F6E656E7473BD
:108E00005C6C69627261726965735C74696D6572CC
:108E10005C6472765F7274632E63000070B50C46FA
:108E2000050003D10549B320FEF7FAF92868C0F818
:108E300048432868C0F8084370BD0000648E0200F3
:108E400070B516460C46050003D106A1A920FEF711
:108E5000E7F92868C0F84443002E02D02868C0F81B
:108E6000044370BD2E2E5C2E2E5C2E2E5C2E2E5CAE
:108E70002E2E5C2E2E5C636F6D706F6E656E74733C
:108E80005C6C69627261726965735C74696D65724C
:108E90005C6472765F7274632E63000070B50C467A
:108EA000050003D106A1BA20FEF7BAF928680159D6
:108EB00021B1214602F0CCFA012070BD002070BD26
:108EC0002E2E5C2E2E5C2E2E5C2E2E5C2E2E5C2EDC
:108ED0002E5C636F6D706F6E656E74735C6C69622F
:108EE0007261726965735C74696D65725C647276D7
:108EF0005F7274632E6300000AB100F043BF00F09C
:108F00002BBF70B50D460446B0F81414D0F8100409
:108F10000122FEF772FA00B1057004F13C0204F57B
:108F2000826104F1540072DF70BD00000EB515A11E
:108F30009DF8080020F00F00401C20F0F0001030D9
:108F40008DF80800072202A87CDF18B10F4A8121A2
:108F5000FDF760F9002000900190ADF804000621B3
:108F60004FF4C870ADF80010ADF80600ADF802106F
:108F700068467ADF002803D0044A8B21FDF74AF9BE
:108F80000EBD0000584B6C696C696900988702003F
:108F90000D484A8843889A4215D10A88A2F5206371
:108FA000773B10D18988C91E8AB282800121017065
:108FB000064807491346401AC008032101EB004048
:108FC00004A101F0F2BF7047D031002000F102008F
:108FD00070F0020044617461206C656E206973203A
:108FE00073657420746F2030782558282564290013
:108FF00010B50C490C4801F019F820B10BA24FF440
:10900000E971FDF707F9F721074801F003F8002897
:1090100006D0BDE8104005A240F2D511FDF7FAB820
:1090200010BD0000918F0200B43700202E2E5C2E60
:109030002E5C2E2E5C6D61696E2E630010B50B48A0
:10904000FFF70EFD094A083AD2E90434C018D2E904
:10905000063244F10001C31A71EB020204D24FF050
:109060008072801841F1000110BD000028340020FA
:1090700001214FF4827000F0FDB930B587B004468D
:10908000012204A942F2011000F036F9D8B30125FB
:109090002A4605A942F2021000F02EF998B30122E7
:1090A00002A942F2031000F027F960B3012206A9D9
:1090B00042F2041000F020F928B3012201A942F283
:1090C000200000F019F9F0B19DF810009DF808207B
:1090D0009DF80410831A8B4202DC02448A4200D2BB
:1090E000002564B120709DF8140060709DF80800A0
:1090F000A0709DF81800E0709DF80400207115B173
:10910000002007B030BDFFE70120FAE738B504467C
:1091100008A00122006800906946100200F0ECF8F7
:1091200000289DF80000207001D0002038BD0120EB
:1091300038BD00000100000010B500F04FF800F04D
:109140000FF900F077F9BDE81040014800F002B8CF
:10915000143200202DE9F04104460F480F494FF624
:10916000FF77401AC008032101EB00482588A67844
:10917000BD4201D1FF2E0CD03146284600F07AF9CD
:1091800028B9404633462A4605A101F00EFF241DAA
:10919000ECE7BDE8F081000000F1020070F0020091
:1091A000686D303162305F77726974655F726567D0
:1091B000206661696C20616464726573733A25642A
:1091C0002076616C75653A256400000002480178DC
:1091D00081F0010101707047FC31002010B586B0AC
:1091E00014200090684601F0DBFB009A032100EB9D
:1091F0008200C0F8001702F0BFFE18B136A2E021CD
:10920000FDF708F8384C394A04A920680490012079
:109210008DF81100162002F025FE18B12EA2E421CF
:10922000FCF7F8FF0121162002F0A0FD01F0CCF8B8
:1092300018B129A2EF21FCF7EDFFD4E90401CDE933
:1092400002012B4A02A92B4803F0A6FA18B122A268
:10925000F321FCF7DFFF6068059005A9132002F0F9
:10926000C5FE18B11CA2FC21FCF7D4FF002001466A
:109270000090012302221F4803F078FA01A802F0AF
:10928000EFFF20B114A24FF48171FCF7C3FF19481E
:109290000468132004F5A07402F036FF024621464C
:1092A0009DF8040003F012F820B10BA24FF4847172
:1092B000FCF7B0FF9DF8040003F02AF820B106A2E5
:1092C00040F20B11FCF7A6FF132002F025FF09481E
:1092D00003F014FA06B010BD626F6172645F6361DF
:1092E0006D6572612E63000090E30200CD91020073
:1092F000ADD80200043200207CB50D46010A8DF87D
:1093000004108DF80500002014460090022301AAE5
:109310002421084801F092F838B906482421001D9C
:109320002A46234603F02AFC08B100207CBD012018
:109330007CBD0000A8E3020010B50446032804D158
:1093400043F2200000F096F838B121464FF48070C7
:1093500000F090F808B1002010BD012010BD000001
:1093600000B587B018220E496846FDF78DF80E202B
:109370000390FF2000900F2001900D20029000200C
:109380008DF810000648074A6946203801F028F891
:10939000002803D004A23821FCF73CFF07B000BD31
:1093A000B8E30200CDD60200626F6172645F636150
:1093B0006D6572612E6300002DE9F8431A4C8146F9
:1093C00020780028FCD000252E46A027A846164964
:1093D000164B0522C91C1648009702F0F5FFA0782D
:1093E0000028FCD084F80280104B0F49A0330522DE
:1093F000C91C0F48009702F0E7FF0C4900200B5CE6
:1094000009F80530801C6D1CA028F8DBA078002826
:10941000FCD084F80280B61C782ED8DB2078002897
:10942000FCD1BDE8F8830000FC310020D54E0020BF
:1094300098E302001FB50A4B0FCB8DE80F000848D8
:1094400000231A466946283800F0D8FF18B105A253
:109450009F21FCF7DFFE0248243803F097FA1FBD76
:10946000D0E30200626F6172645F63616D65726177
:109470002E6300001CB5020A8DF804208DF805004B
:1094800000208DF806100090032301AA242104482F
:1094900000F0D4FF08B100201CBD01201CBD00005D
:1094A000A8E302000146034802888A4200D0002057
:1094B00070470000485000202DE9FC5F0E008346F5
:1094C000DDE90C47C6F1000098469246814600D47B
:1094D0000846012503E000BF90FBFAF06D1C5045E3
:1094E000FADAA84500D9454624B1002E01DB7807F9
:1094F00000D5641EB80702D5B8F1000F0AD0F807EE
:1095000008D13CB1A54205D220215846641EFEF781
:10951000DDFFF6E7002E02DA4E462D2102E0780745
:1095200003D52B215846FEF7D1FF07F00300022890
:109530000BD1B8F1000F08D13CB1A54205D23021C2
:109540005846641EFEF7C2FFF6E7CDE900474346E2
:1095500052463146584604F073FDBDE8FC9F024672
:1095600000201268530713D502F00300012802D02F
:1095700002280CD105E0C2F383100B68801C18444C
:1095800004E00223086803EB9252104408600120B3
:1095900070470000F8B50C4605464FF48C7102F098
:1095A000E9FA002820D00026C5F81861D5F818017E
:1095B0000090206820B90DA140F29720FDF730FE01
:1095C000E07FFF2806D0A17F11B101F0A7F901E0EB
:1095D00001F0BAFA66772672D4E9002101B004F1ED
:1095E0000800BDE8F0401047F8BD00002E2E5C2EAC
:1095F0002E5C2E2E5C2E2E5C2E2E5C2E2E5C6D6F25
:1096000064756C65735C6E7266785C6472697665AD
:1096100072735C7372635C6E7266785F7370696D8F
:109620002E63000070B50C464FF48876054631462F
:1096300001F082FE50B13146284601F082FE607989
:10964000400703D5216809B1012088474FF48A7685
:109650003146284601F070FE50B13146284601F0EF
:1096600070FE6079000703D5216809B102208847A0
:109670004FF48E763146284601F05EFE50B13146F9
:10968000284601F05EFE6079C00603D4216809B166
:10969000002088474FF482763146284601F04CFE80
:1096A00000280CD03146284601F04BFE01202071E5
:1096B0002168002903D0BDE870400320084770BD31
:1096C0000121814003484068014201D001207047D8
:1096D0000020704710340020014601208840FDF72B
:1096E00099BDF0B58488A518944200D82246A41AE2
:1096F000C288D6189A4200D81346D21A4B880788D7
:10970000BB420CD34088834209D88888A04206D344
:10971000A84204D8C888904201D3B04201D90020A1
:10972000F0BD0120F0BD01218140C80300D001201F
:10973000704700000A4810B5807860B1002401E04D
:10974000022C06D02046FEF75DFC641C042CF7D3E7
:1097500010BD0324F6E7BDE81040FEF7DBBC0000B7
:1097600064330020F721018017214180002101711D
:109770004171FB2181711B21C1717047704700004D
:109780002DE9FF410026274800F009FB2548001F6E
:10979000074600F004FB244C2449A06800900D68A3
:1097A00000E000986946284004EB80000C30FFF789
:1097B000D6FE0028F5D101AA009901EA050304EBC1
:1097C0008303491CDB6842F82030401C00910228CA
:1097D000F2D3019800F0030001281AD002280ED01D
:1097E00013494FF4C270FDF71BFD384600F0D4FA60
:1097F00008B10098A06004B03046BDE8F08101983F
:10980000032101EB90500099BDF80A6001EB900034
:1098100005E00198BDF80A60C0F383100844009089
:10982000E3E7000040580020285400206434002062
:10983000A0EC02006FA08EB0D0E90010CDE90010BE
:109840006EA1D1E90001CDE902014FF48041002071
:1098500001F01AFC20B16B4A40F29721FCF7DAFCC8
:1098600001F066FAFFF768FC674968480325081AA3
:10987000C00805EB004466A1204601F08BFB2046A2
:1098800069A101F087FBFDF773FB18B15D4A6E21FA
:10989000FCF7C0FC204666A101F07CFB01F058FDFE
:1098A00020B1584A40F2A321FCF7B4FC204662A143
:1098B00001F070FBFEF71AFB204661A101F06AFB84
:1098C0000120FEF757FFFFF731FBFFF791FB5E48E2
:1098D0000590002605A95D4800F06DFC18B1494AC5
:1098E000CE21FCF797FC5A48049004A95948FEF78A
:1098F0001FFA18B1434AD621FCF78CFCFDF7DAF9C0
:109900001C2104A8FCF7D9FD4FF4A030CDE9046078
:109910004FF4F02006905048099050488DF81C50A4
:109920000A90ADF81E608DF8206004A8FDF764FF72
:1099300020B1344A4FF48771FCF76CFC4348032193
:109940000C30FDF741FE20B12E4A40F2B921FCF760
:1099500061FC204642A101F01DFB204646A101F01A
:1099600019FB4948009940F8481FBDF80410818050
:109970009DF8061081714548029940F80F1FBDF807
:109980000C108180FF208DF82C000CA8FFF775FBD0
:109990000BA8FFF7BBFB20469DF82C203CA101F053
:1099A000FDFAFFF765FB01210846FFF7C5FC00BF84
:1099B00001F0D4F90028FBD1264E334D0C3E4FF474
:1099C0009657483541F2CD2801F0C8F908B901F0A1
:1099D000D3FC204634A101F0DDFA30780028F3D022
:1099E0003946E81DFFF7E8FC274841464830FEF7B6
:1099F00045FAE9E77072656D00503C0046494E49F2
:109A0000534800009887020000F1020070F0020045
:109A100043616D6572612050686520696E697420CC
:109A2000446F6E652E0D0A00496E69742030000087
:109A3000496E697420310000496E6974203131002B
:109A4000496E6974203200001DB40200C83700203E
:109A500091CC0200DC31002069CD02007188020047
:109A6000424C452050686520696E697420446F6ED1
:109A7000652E0D0A00000000496E6974206973208C
:109A8000446F6E6500000000C03B0020C04E002007
:109A9000484D303142302063757272656E74206DAE
:109AA0006F64652025640A004765745F706963749C
:109AB000757265725F68616E646C657200000000AB
:109AC00070B5144682880E4605462088111D014453
:109AD000921C994201D8FE2A01D90C2070BD521C5B
:109AE00032542088FF21401C80B2208031542088CD
:109AF000401C80B220808119288804F09BFA2188BC
:109B0000084480B22080AA8842B1A96841B130449B
:109B1000FCF7BAFC2088A98808442080002070BD8A
:109B2000072070BD2DE9F05F1E46DDF828B0914694
:109B30008A46040003D124A1B620FDF771FBB4F8D6
:109B40000680607908FB00F8A8F10408464503D3B5
:109B50001DA1C420FDF764FBE788301DB0FBF7F1C1
:109B6000B0FBF7F207FB1200D9F80050AA194245E2
:109B700001D9A8EB0605C9F8005001E02468491E88
:109B80000029FBD13E1A8846AE4215D817E000BF27
:109B90002044001D0AEB0803BBF1000F324602D03F
:109BA0000146184600E01946FCF76EFC00202468C8
:109BB000AD1BB044AF4201D92E4600E03E46002D19
:109BC000E6D1BDE8F09F00002E2E5C2E2E5C2E2EDE
:109BD0005C2E2E5C2E2E5C2E2E5C636F6D706F6E75
:109BE000656E74735C6C69627261726965735C6DD9
:109BF000656D6F626A5C6E72665F6D656D6F626ADD
:109C00002E63000030B5024651B101F051FA002137
:109C1000074C08E034F821301568AB4202D11160DE
:109C2000002030BD491C8142F4D3052030BD000026
:109C300000000000F8B50F460178144605460129DA
:109C400001D1687830B12088821C9A4232D801292B
:109C500002D006E00720F8BD69780144891C9942CA
:109C600028D8181A801E86B2ADF800602188B81C6A
:109C7000084469467DDF0028EDD12978022904D007
:109C80006878BDF80020904205D3BDF80000B042CE
:109C900001D809200AE00820012905D16978B142DC
:109CA00002D8ADF8001001E0ADF80060BDF800107A
:109CB000FE2901D90C20F8BD2288491CB9542188FD
:109CC000491C89B2218078542088401C2080BDF82E
:109CD0000010084420800020F8BD10B531B1B2FB5F
:109CE000F3F403FB14241CB1092010BD0E2010BD99
:109CF00001600021416081608281C381084610BDFE
:109D000070B50C460546FCF793FA002802D021886E
:109D10002868084470BD10B50A8849888A4203D172
:109D2000FCF7C8FA012010BD002010BD70B50C462C
:109D30000546FCF7A2FA002802D06188286808448A
:109D400070BD10B50A8849888A4203D1FCF78CFAA5
:109D5000012010BD002010BD01F01F0301229A4018
:109D6000D243490900EB8100114600F021B84A09AD
:109D700050F8220001F01F0201219140084000D05C
:109D80000120704701F01F0301229A40490900EBAE
:109D90008100114600F01CB8002100F00FB801212D
:109DA00000F016B808B56A46FCF7D9FA009808BD65
:109DB00008B56A46FCF7B9FA009808BD08B56A46C6
:109DC000FCF7B3FA08BD08B56A46FCF795FA08BD7A
:109DD00008B56A46FCF79CFA009808BD08B56A46C3
:109DE000FCF7CAFA009808BD38B5040004D115A1E3
:109DF0004FF49270FDF714FA00258DF80050684674
:109E0000FDF778F9206862680168914214D9491E0B
:109E100001600D781CB91AA1E820FDF701FA208A2B
:109E2000E16805FB00152068217A0278891A027919
:109E3000C9B28A4200D201719DF80000FDF7A6F96F
:109E4000284638BD2E2E5C2E2E5C2E2E5C2E2E5CCF
:109E50002E2E5C2E2E5C636F6D706F6E656E74734C
:109E60005C6C69627261726965735C62616C6C6F73
:109E7000635C6E72665F62616C6C6F632E63000080
:109E80002E2E5C2E2E5C2E2E5C2E2E5C2E2E5C2E0C
:109E90002E5C636F6D706F6E656E74735C6C69625F
:109EA0007261726965735C62616C6C6F635C6E7227
:109EB000665F62616C6C6F632E63000038B50C46A0
:109EC000050004D112A140F24710FDF7A9F924B909
:109ED0000FA14FF4A470FDF7A3F900208DF8000046
:109EE0006846FDF707F91DB91849F520FDF798F9FF
:109EF000E8682A68211A288AB1FBF0F11068431C2F
:109F0000136001709DF80000FDF740F938BD0000B6
:109F10002E2E5C2E2E5C2E2E5C2E2E5C2E2E5C2E7B
:109F20002E5C636F6D706F6E656E74735C6C6962CE
:109F30007261726965735C62616C6C6F635C6E7296
:109F4000665F62616C6C6F632E630000809E02002E
:109F500010B5040002D0206830B901E00E2010BD19
:109F600019A1FF20FDF75CF9606820B916A14FF434
:109F70008070FDF755F9A06820B913A140F20110D7
:109F8000FDF74EF9E06820B90FA14FF48170FDF79D
:109F900047F9208A20B90CA140F20310FDF740F9DF
:109FA000207A61682268401AC0B2116004E0226819
:109FB00011684B1C13600870401EC0B2F7D22168B4
:109FC0000020087110BD00002E2E5C2E2E5C2E2E5F
:109FD0005C2E2E5C2E2E5C2E2E5C636F6D706F6E71
:109FE000656E74735C6C69627261726965735C62E0
:109FF000616C6C6F635C6E72665F62616C6C6F63E8
:10A000002E630000C20800F007030120895C98401D
:10A010000840704728B1A1F11702E12A03D30720B5
:10A0200070470E20704701800020704710B560B166
:10A030000161F72120F8021B20F8021BFB2100F828
:10A04000021BFFF78FFB002010BD0E2010BD00008B
:10A05000F0B5858893B00C46002D39D101880026D3
:10A060003F4F24293BD006DC102909D011290CD000
:10A07000232958D14FE03A290BD0552953D129E053
:10A080000146204602F0BEFE4DE0A01DFFF76AFB30
:10A0900049E02246408934F8061F814200D808462C
:10A0A0006080172800D217206080106970B1607935
:10A0B00060B1D7E90001CDE90301ADF80E50608829
:10A0C000ADF81000136903A9104698476671267110
:10A0D00013B0F0BD0146204602F0E8FE23E0011D6A
:10A0E0002C2206A8FCF7D0F9BDF81800BDF81C20FA
:10A0F00004EBC0014A732269AAB1D7E90423CDE970
:10A100000423ADF81200487B8DF814002269204624
:10A1100004A9904707E0017A207B884200D20146DB
:10A120002846FEF7D5FBA07A0028D1D0E188284642
:10A13000A5DF012580B11128CAD001F047FD0246F4
:10A140000848094913B0401AC00805EB0040BDE8B3
:10A15000F04006A100F022BFA672E572B8E7000049
:10A1600028E4020070F0020070F0020073645F6285
:10A170006C655F67617474635F65786368616E675F
:10A18000655F6D74755F72657175657374282920DC
:10A1900072657475726E65642025732E0000000070
:10A1A00020B10278DE2A03D0082070470E207047C5
:10A1B00041800020704760B159B10278DE2A0AD090
:10A1C00009684160DE2101704FF6FF714180002077
:10A1D00070470E207047082070477FB5054600295C
:10A1E0004DD0002D4BD008780C46DE2847D1A888EA
:10A1F0006188884202D1204603F0BCFF28880128EC
:10A2000025D002283BD011283AD0512837D135F833
:10A21000040F6188884232D1A978A81C02292ED166
:10A22000017A042903D0062901D0052927D100216C
:10A23000009102228DF8002001914FF4C07202912A
:10A240000391ADF80420007A05280FD010E0297A98
:10A250002046012913D1A988428891420FD10121BA
:10A26000017204B0BDE8704003F084BFADF8041083
:10A2700028886946B0DF002801D0616888477FBD23
:10A28000A88861888842FAD14FF6FF7060807FBD50
:10A2900000F180400068002800D00120704708B518
:10A2A00000F18040002101600068009008BD0000BE
:10A2B00070B50D4C0125207808B185260EE00020F0
:10A2C000A06060602061E060084801F0D1FC0646B3
:10A2D00001F0A8FA08B901F09DFC257001F092FC8C
:10A2E00000B1A570304670BDF450002041870200D7
:10A2F00038B5164C207820B915A140F21710FCF79C
:10A300008FFFE06820B912A14FF48C70FCF788FF32
:10A3100000258DF800506846FCF7ECFEE068401E12
:10A32000E060E06860B901F07DFA18B117A17B2008
:10A33000FCF776FF01F066FC10B901F0CBFCA570CC
:10A340009DF80000FCF722FF38BD0000F45000200B
:10A350002E2E5C2E2E5C2E2E5C2E2E5C2E2E5C2E37
:10A360002E5C696E746567726174696F6E5C6E7283
:10A3700066785C6C65676163795C6E72665F647257
:10A38000765F636C6F636B2E630000002E2E5C2E75
:10A390002E5C2E2E5C2E2E5C2E2E5C2E2E5C696E7C
:10A3A000746567726174696F6E5C6E7266785C6CFE
:10A3B00065676163795C6E72665F6472765F636C19
:10A3C0006F636B2E630000000448017809B185209B
:10A3D00070470121017000207047000018340020F0
:10A3E00030B40379034C44F8232030BC024A02F015
:10A3F00057B80000D8510020DDD602002DE9F04109
:10A40000064604780B4815460F4640F824200830CD
:10A4100040F82430487B10B1084603F02DFB0DB105
:10A42000054A00E0002223463946301DBDE8F041D0
:10A4300002F0E6BAF83300201DDB020038B5001D3B
:10A44000049C009402F0B2FB38BD00000FB438B594
:10A45000040003D110A14220FCF7E2FE606918B9A4
:10A460000DA14320FCF7DCFE206818B90AA14420A6
:10A47000FCF7D6FE606818B907A14520FCF7D0FEAE
:10A480000599002905D006A800906A46204600F0EC
:10A4900049F838BC5DF814FB2E2E5C2E2E5C2E2E57
:10A4A0005C2E2E5C2E2E5C2E2E5C65787465726E92
:10A4B000616C5C667072696E74665C6E72665F6613
:10A4C0007072696E74662E630000000010B504009F
:10A4D00003D107A13120FCF7A3FEA268002A05D012
:10A4E000D4E90403216898470020A06010BD000053
:10A4F0002E2E5C2E2E5C2E2E5C2E2E5C2E2E5C2E96
:10A500002E5C65787465726E616C5C667072696EE3
:10A5100074665C6E72665F667072696E74662E63D6
:10A52000000000002DE9FC4791460C465FEA000858
:10A5300004D183A140F25220FCF772FED8F8140037
:10A5400020B97FA14FF41570FCF76AFED8F800001F
:10A5500020B97BA140F25520FCF762FED8F8040038
:10A5600020B977A140F25620FCF75AFE002C76D095
:10A5700014F8011B39B125290ED04046FDF7A6FF7E
:10A5800020780028F4D198F80C00002867D04046C5
:10A59000BDE8FC47FFF79ABF0020012221782B2954
:10A5A0001BD02D2902D0302908D102E040F0010053
:10A5B00001E040F00200641C002AEFD100252A29A6
:10A5C0000ED02178A1F130020A2A11D205EB8502C2
:10A5D00001EB4205641C303DF1E740F00400EAE77E
:10A5E000D9F800100B1DC9F800300968641C0D442F
:10A5F000217800232E290BD114F8011FA1F130027C
:10A600000A2A05D203EB830201EB4203303BF3E756
:10A610006C290DD068290BD0692921D00BDC2529A4
:10A6200018D0582931D063290ED0642915D117E0EC
:10A6300014F8011FECE7702969D0732932D075290D
:10A640001BD0782909D120E0D9F80000011DC9F8F4
:10A65000001001784046FDF739FF641C90E76CE07C
:10A66000D9F800100A1DC9F800200968CDE900508A
:10A670000A224046FEF720FFEFE7D9F800100A1D36
:10A68000C9F8002009680A2206E0D9F800100A1D5E
:10A69000C9F8002009681022CDE90050404603F0B7
:10A6A000CFFCDAE7D9F8001000270A1DC9F800200E
:10A6B0000E68C00705D112E04046761C7F1CFDF7EE
:10A6C00005FF31780029F7D104E0202140466D1EB6
:10A6D000FDF7FCFEBD42C0D9002DF6D1BDE74EB15D
:10A6E0003046FBF7F5FE074604E0202140466D1E8C
:10A6F000FDF7ECFEBD4206D9002DF6D103E0404641
:10A70000761CFDF7E3FE31780029F8D1A5E7D9F8EA
:10A710000000011DC9F80010056830214046FDF712
:10A72000D5FE78214046FDF7D1FE08200021CDE975
:10A730000001034610222946B0E7BDE8FC8700006F
:10A740002E2E5C2E2E5C2E2E5C2E2E5C2E2E5C2E43
:10A750002E5C65787465726E616C5C667072696E91
:10A7600074665C6E72665F667072696E74665F6650
:10A770006F726D61742E63002DE9FF411C46DDE9A7
:10A780000A7815460E46684600F038F946EA450153
:10A7900041EA840141EA072242EA0841009A00EBBB
:10A7A0008200C0F80017BDE8FF8100002DE9F047E6
:10A7B0000F46DDE90889044641091D4616464FF05B
:10A7C000000000D1401E04F01F020121914001420F
:10A7D00004D10AA14FF4F670FCF722FD47EA4601C6
:10A7E0004FF0A04041EA850242EA082200EB8400D3
:10A7F00042EA0941C0F80017BDE8F0872E2E5C2E12
:10A800002E5C2E2E5C2E2E5C2E2E5C2E2E5C6D6F02
:10A8100064756C65735C6E7266785C68616C2F6ED3
:10A8200072665F6770696F2E680000002DE9F0475F
:10A830000F46DDE90889044641091D4616464FF0DA
:10A84000000000D1401E04F01F020121914001428E
:10A8500004D10AA14FF4F670FCF7E2FC47EA460186
:10A860004FF0A04041EA850242EA082200EB840052
:10A8700042EA0941C0F80017BDE8F0872E2E5C2E91
:10A880002E5C2E2E5C2E2E5C2E2E5C2E2E5C6D6F82
:10A8900064756C65735C6E7266785C68616C2F6E53
:10A8A00072665F6770696F2E6800000013B50C4612
:10A8B000684600F0A3F8009900EB8101D1F8002769
:10A8C00022F44032C1F80027009900EB8100D0F853
:10A8D000001741EA0441C0F800171CBD38B5094B08
:10A8E00044181B6800936B4608E000BF53F8201023
:10A8F000D1F8205520C2C1F82055401C8442F5D81B
:10A9000038BD000050E4020001B5684600F076F85A
:10A91000009A01219140C0F80C1508BD01B56846A8
:10A9200000F092F8009A01219140C0F80C1508BD82
:10A9300001B5684600F0B6F8009A01219140C0F8D0
:10A940000C1508BD10B501684FF000004A0900D190
:10A95000401E01F01F0201219140014204D104A1D7
:10A960004FF4F670FCF75CFC4FF0A04010BD000007
:10A970002E2E5C2E2E5C2E2E5C2E2E5C2E2E5C2E11
:10A980002E5C6D6F64756C65735C6E7266785C6866
:10A99000616C5C6E72665F6770696F2E68000000A4
:10A9A00010B501684FF000004A0900D1401E01F0C7
:10A9B0001F0201219140014204D104A14FF4F6701D
:10A9C000FCF72EFC4FF0A04010BD00002E2E5C2E98
:10A9D0002E5C2E2E5C2E2E5C2E2E5C2E2E5C6D6F31
:10A9E00064756C65735C6E7266785C68616C5C6ED5
:10A9F00072665F6770696F2E6800000010B50068AE
:10AA000000F07EF820B904A14FF4F670FCF708FCC2
:10AA10004FF0A04010BD00002E2E5C2E2E5C2E2E7E
:10AA20005C2E2E5C2E2E5C2E2E5C6D6F64756C651C
:10AA3000735C6E7266785C68616C2F6E72665F67BD
:10AA400070696F2E6800000010B501684FF00000BB
:10AA50004A0900D1401E01F01F020121914001422C
:10AA600004D104A14FF4F670FCF7DAFB4FF0A040DC
:10AA700010BD00002E2E5C2E2E5C2E2E5C2E2E5C29
:10AA80002E2E5C2E2E5C6D6F64756C65735C6E7221
:10AA900066785C68616C2F6E72665F6770696F2E96
:10AAA0006800000010B501684FF000004A0900D1AD
:10AAB000401E01F01F0201219140014204D104A176
:10AAC0004FF4F670FCF7ACFB4FF0A04010BD000057
:10AAD0002E2E5C2E2E5C2E2E5C2E2E5C2E2E5C2EB0
:10AAE0002E5C6D6F64756C65735C6E7266785C6805
:10AAF000616C2F6E72665F6770696F2E6800000070
:10AB000042094FF0000100D1491E00F01F00012250
:10AB100082400A4201D0012070470020704701B5F1
:10AB20006846FFF76BFFD0F810050099C84000F0A9
:10AB3000010008BD01B56846FFF760FF009A0121DA
:10AB40009140C0F8081508BD01B56846FFF77CFFC5
:10AB5000009A01219140C0F8081508BD01B568466A
:10AB6000FFF7A0FF009A01219140C0F8081508BD29
:10AB700038B501240090684631B1FFF7E3FE009933
:10AB80008C40C0F8084538BDFFF7DCFE00998C40CA
:10AB9000C0F80C4538BD0000034908B50844002141
:10ABA00001600068009008BD006000400249405804
:10ABB000012800D0002070470060004030B5154AE1
:10ABC00001460020D2F8104423460AE0DB681D79D4
:10ABD000854205D1401C0A28F6DB4FF0FF3030BD1E
:10ABE0001B68002BF2D1431CF9D0CB681871D2F846
:10ABF000103443B1DB68CC681B682360D2F81024A2
:10AC0000D268116030BDC2F81014C96800220A6011
:10AC100030BD0000285400207047FBF745BD704749
:10AC200008B5034A00924023024A00F005F808BD27
:10AC3000BDD4020090520020F0B595B01C461546D8
:10AC40000F4608461A9E00F003FB182109A8FBF7DF
:10AC500034FC0E96CDE909540023082203A9384696
:10AC600000F00CFB05980690BDF81000ADF81C0034
:10AC7000BDF81200ADF81E0000208DF821000398E9
:10AC8000082600F00300012802D0022818D032E084
:10AC900003983346850AC0F3C2008DF8200003985C
:10ACA0000FA9C0F38314A200384600F0E7FA09A800
:10ACB000009006AB22460FA9284600F025FA1AE0BC
:10ACC0000398840DC0F3C2008DF82000082C01D237
:10ACD000254600E0082533462A460FA9384600F0ED
:10ACE000CDFA2E44641B09AB06AA29460FA800F032
:10ACF00073F9002CEAD1384600F0B0FA15B0F0BD77
:10AD00000A4A012902EBC00007D0022907D0032913
:10AD100007D0042907D00020704702207047042084
:10AD200070470079704740797047000070F002006A
:10AD300010B5FFF772FF04210648FFF73FFF002818
:10AD400003DA05494120FCF76BFA02490120C96882
:10AD5000487110BD60F0020054EC02002DE9F04F84
:10AD60008DB0FDF7CBFB18B100200DB0BDE8F08F22
:10AD70007E4C4FF0000BC4F818B4BFF34F8F7C49E2
:10AD8000A06802900D68D846284004EB80000BE0D4
:10AD9000D4F8180470B961680298814201D8A160A2
:10ADA000E2E7284004EB80000C3002A9FEF7D7FB55
:10ADB0000028EDD1002005AA029901EA050304EB61
:10ADC0008303491CDB6842F82030401C02910228B2
:10ADD000F2D3059800F00300022802D001284DD0DC
:10ADE000AAE005985022810D8946B2EB905F00D809
:10ADF00050210E4666F39F50059008315D4800F0E3
:10AE0000DEF9070078D000F023FA4346082205A9AE
:10AE1000384600F063FA029908F1080A2940681AD6
:10AE20008000001D864222D9504D0C3530B1C2B28F
:10AE300004EB8101301A90460C3104E02946F2B24D
:10AE4000002590462846C6B25346384600F046FADA
:10AE50000AEB080325B132462946384600F03EFA8F
:10AE6000029909F1030001EB900002903BE004EB32
:10AE700081015346324638460C31EFE70598C0F35E
:10AE80008310062800D30620059960F38911C1F3C9
:10AE90008310801C05918100364800F090F907006E
:10AEA0004AD000F0D5F94346082205A9384600F0FB
:10AEB00015FA08F1080800260FE00298434600EA58
:10AEC0000501401C04EB81010290042238460C313C
:10AED00000F004FA08F10408761C0598C0F383100A
:10AEE000B042EAD847B1D4F81054D4F8180478B175
:10AEF000384600F0B3F934E01EE0E86840790128F4
:10AF000004D12A682846394612689047E8680568DF
:10AF1000002DF2D1384600F0A1F98DF800B0684656
:10AF2000FCF7E8F8D4F8180408B90298A0609DF876
:10AF30000000FCF72BF914E0D4F8104405E0216878
:10AF4000204689688847E0680468002CF7D10A48E1
:10AF50000A49401AC008022101EB004008A100F094
:10AF600019F8FDF7CBFA80F00100FEE62854002026
:10AF70006434002020F1020000F1020070F00200B1
:10AF80004261636B656E647320666C75736865649B
:10AF90000000000000231A4602F030BC08B501236F
:10AFA00000926A4602F02AFC08BD1CB5CDE90023D8
:10AFB00002236A4602F022FC1CBD70B586B00DF17A
:10AFC000280C9CE870008DE87C0005236A4602F09E
:10AFD00015FC06B070BD00002DE9F0470E46804616
:10AFE0001C469246082940D894F80C900020207303
:10AFF0001946104602F0BEF80025B54206D218F8F0
:10B0000005201BA12046FFF721FA03E01AA12046E4
:10B01000FFF71CFA6D1C082DEFD318A12046FFF78F
:10B0200015FA0025B54212D218F805707E2F08D8FF
:10B03000FBF726FA0068C05D10F03E0F01D03A46DB
:10B0400000E02E220EA12046FFF700FA03E00DA13A
:10B050002046FFF7FBF96D1C082DE3D301222146A2
:10B06000504602F069F884F80C90BDE8F0870000C3
:10B070002025303278000000202020007C000000D5
:10B080002563000020000000064910B5002008706C
:10B09000054800F0E1F8002803D1044800F0CAF99F
:10B0A000002010BD2854002020F1020038E60200E4
:10B0B00002480349401AC0087047000020F102000E
:10B0C00070F0020013B56846FEF79CFD08B1002041
:10B0D0001CBD0248009950F831001CBD70F0020000
:10B0E00070B508480125D0F81044057007E0E06805
:10B0F00045712168204649688847E0680468002C4B
:10B10000F5D170BD285400202DE9FF4781460C9DE4
:10B1100000200C462F7B2873984616462946184671
:10B1200002F028F8072E42D2DFE806F004090F16D5
:10B130001F2A360049462846FFF788F937E0494676
:10B1400028462268FFF782F931E0D4E90023494616
:10B150002846FFF77BF92AE0A0680090D4E9002395
:10B1600049462846FFF772F921E0D4E90201CDE90A
:10B170000001D4E9002349462846FFF767F916E0A5
:10B1800004F1080007C88DE80700D4E90023494608
:10B190002846FFF75BF90AE004F108000FC88DE8C4
:10B1A0000F00D4E9002349462846FFF74FF9002253
:10B1B0002946404601F0C0FF2F73BDE8FF872DE907
:10B1C000F041058A80462D1F4819C01CB0FBF5F0E0
:10B1D000C6B24046FEF708FE041E19D000202071BA
:10B1E00001206071E58000272546761EC4F80080A6
:10B1F0000BE04046FEF7F8FD60B16179491C6171D2
:10B20000286005467F1CC0F80080B742F1D3204675
:10B21000BDE8F081204600F002F80020F8E72DE9B3
:10B22000F041457901466B1E002201E00968521C7D
:10B230009A42FBD30F680146002605E038460C68A9
:10B24000FEF73CFE2146761CAE42F7D3BDE8F08106
:10B250000121001DFEF7A6BDFEF77ABE10B504461B
:10B260000121001DFEF7BAFD10F0FF0F04D12046AA
:10B27000BDE81040FFF7D3BF10BD00001CB5144659
:10B280000122CDE9002401AAFEF74CFC0198A0425E
:10B2900004D003A14FF48070FBF7C2FF1CBD000077
:10B2A0002E2E5C2E2E5C2E2E5C2E2E5C2E2E5C2ED8
:10B2B0002E5C636F6D706F6E656E74735C6C69622B
:10B2C0007261726965735C6D656D6F626A5C6E72E6
:10B2D000665F6D656D6F626A2E6300001CB5144673
:10B2E0000022CDE9002401AAFEF71CFC0198A0422F
:10B2F00003D002A1F620FBF793FF1CBD2E2E5C2E7F
:10B300002E5C2E2E5C2E2E5C2E2E5C2E2E5C636F01
:10B310006D706F6E656E74735C6C69627261726978
:10B3200065735C6D656D6F626A5C6E72665F6D659C
:10B330006D6F626A2E6300004058002800D0012023
:10B34000704708B5002242504058009008BD0000E8
:10B35000064910B500204870091D0860BFF35F8FD3
:10B360000349044800F0CEFA002010BD50340020FC
:10B37000D0E402008452002038B500208DF800008F
:10B380006846FBF7B7FEF1EE104A24F09F00E1EEAD
:10B39000100ABFF35F8F10494020C1F880029DF86A
:10B3A0000000FBF7F3FE600703D00CA17D20FBF744
:10B3B00037FF00F037FA58B141DF00280BD00228E0
:10B3C00009D0BDE8384005A14FF4B070FBF728BFA5
:10B3D00020BF40BF20BF38BD04E000E02E2E5C2E11
:10B3E0002E5C2E2E5C2E2E5C2E2E5C2E2E5C636F21
:10B3F0006D706F6E656E74735C6C69627261726998
:10B4000065735C7077725F6D676D745C6E72665F9A
:10B410007077725F6D676D742E63000001A29821D2
:10B42000FAF7F8BE2E2E5C2E2E5C2E2E5C6D616916
:10B430006E2E6300826800219160826811618268CB
:10B4400051618268D1608268516080680160704794
:10B4500008B5002242504058009008BD20B1034971
:10B4600009680160002070470E207047BCE60200AA
:10B470002DE9FE4307460E460846FFF7EFFF00287A
:10B480007CD100240094019406208DF800704FF0C8
:10B490000108ADF8040002948DF80280694620206E
:10B4A000326869DF3649374A891AC908012202EB36
:10B4B000014530B100F08AFB024628463249FFF7C9
:10B4C0006DFD00948DF801808DF802400194029486
:10B4D0008DF8034069464020326869DF30B100F0E2
:10B4E00075FB024628462949FFF758FD00948DF860
:10B4F0000070F720ADF80200019402946946232001
:10B50000326869DF30B100F061FB0246284620490D
:10B51000FFF744FD0094019402948DF80080694681
:10B520000120326869DF30B100F050FB0246284646
:10B530001849FFF733FD4FF4B06000900194029476
:10B540006946A120326869DF30B100F03FFB024656
:10B5500028461149FFF722FD0094019402948DF8CA
:10B5600000406946A020326869DF30B100F02EFB50
:10B57000024628460949FFF711FD0020BDE8FE8379
:10B5800010F1020070F0020094EE0200DCEE020006
:10B5900028EF0200F4ED020040EE0200A0ED0200F0
:10B5A0002DE9F0410546076860DF804619491A48D1
:10B5B0002A68081AC608BA4219D9022000EB0644C4
:10B5C00016A12046FFF7E6FC20463A461FA12B684D
:10B5D000FFF7EBFC4FF08050D0F80C012968800297
:10B5E00000F10050421A204625A1FFF7D7FCB8F120
:10B5F00000004FF001040AD000F0E8FA024604EB24
:10B6000006402AA1FFF7CAFC4046BDE8F0812F485A
:10B610000470F9E710F1020070F00200496E7375D2
:10B620006666696369656E742052414D20616C6C79
:10B630006F636174656420666F722074686520535F
:10B640006F66744465766963652E00004368616EB9
:10B650006765207468652052414D2073746172746F
:10B66000206C6F636174696F6E2066726F6D20303D
:10B6700078257820746F20307825782E000000001F
:10B680004D6178696D756D2052414D2073697A6501
:10B6900020666F72206170706C69636174696F6E8F
:10B6A00020697320307825782E00000073645F6273
:10B6B0006C655F656E61626C6528292072657475C2
:10B6C000726E65642025732E00000000BB340020DC
:10B6D00030B51948ADF5017D0078002829D04FF428
:10B6E000FA7400BFADF8004280A9684661DF50B12E
:10B6F00005281ED00DF5017D10A2BDE8304040F2B6
:10B700003B11FAF787BD6D461C497DA800F0FAF899
:10B7100009E07DA800F0DEF8D0E900212846904736
:10B720007DA800F02DF97DA800F0D4F80028D9D02C
:10B73000EFE70DF5017D30BDBB3400202E2E5C2ED1
:10B740002E5C2E2E5C2E2E5C2E2E5C2E2E5C636FBD
:10B750006D706F6E656E74735C736F66746465761E
:10B760006963655C636F6D6D6F6E5C6E72665F734F
:10B7700064685F626C652E6300000000C0E6020032
:10B780007CB5194C207808B108207CBD0120A07040
:10B79000002001F055FE112819D0002001F06CFEA8
:10B7A00012480026006801908DF800606846FBF79B
:10B7B000A1FC0F4901A810DF05000AD0002020706D
:10B7C0009DF80000FBF7E2FC2DB128467CBD00206F
:10B7D0007CBD0120F3E7A670667001F025FF012013
:10B7E00001F04AFEF3E70000B834002054E60200FE
:10B7F000216D02000EB50A49684600F083F808E0A2
:10B80000684600F05BF8D0E900108847684600F011
:10B81000B7F8684600F052F80028F1D10EBD0000DC
:10B8200070E602000148007870470000B83400203C
:10B830001FB568464BDF40B105281BD004B00EA2EF
:10B84000BDE810406B21FAF7E5BC1B4901A800F0E8
:10B8500059F809E001A800F049F8D0E90021009862
:10B86000904701A800F08CF801A800F03FF80028EC
:10B87000DFD0EFE71FBD00002E2E5C2E2E5C2E2E9B
:10B880005C2E2E5C2E2E5C2E2E5C636F6D706F6EA8
:10B89000656E74735C736F66746465766963655C0A
:10B8A000636F6D6D6F6E5C6E72665F7364685F73FD
:10B8B0006F632E6300000000DCE6020010B5040098
:10B8C00003D10349C420FBF7ABFCA06810BD000006
:10B8D0004CED020010B5040003D10349C420FBF76E
:10B8E0009FFCA06810BD00004CED020010B50400E4
:10B8F00003D10349C420FBF793FCA06810BD0000EE
:10B900004CED020070B50D46040003D108495020EB
:10B91000FBF786FC1DB906495120FBF781FC256029
:10B92000286860602046BDE8704000F003B8000061
:10B9300014E8020010B5040003D110493320FBF7CE
:10B940006FFC206818B90D493420FBF769FC60686A
:10B9500018B90A493520FBF763FCD4E900104A689E
:10B96000904201D1002004E0D0E900239A4202D0A5
:10B970001046A06010BD08306060F0E714E80200D7
:10B9800010B5040003D112496320FBF749FC20687D
:10B9900018B90F496420FBF743FCA068002815D0B4
:10B9A000216889680844A060606818B90849732054
:10B9B000FBF736FCD4E901014268914206D1083018
:10B9C00060602046BDE81040FFF7B4BF10BD000026
:10B9D00014E8020070B50D46060003D10BA13A2011
:10B9E000FBF71EFC1DB909A13B20FBF719FC74688D
:10B9F00004E0B2682946904718B1246820680028FE
:10BA0000F7D120682860256070BD00002E2E5C2EC6
:10BA10002E5C2E2E5C2E2E5C2E2E5C2E2E5C636FEA
:10BA20006D706F6E656E74735C6C69627261726961
:10BA300065735C736F72746C6973745C6E72665F4D
:10BA4000736F72746C6973742E63000010B5040018
:10BA500003D103A15D20FBF7E3FB6068006810BD24
:10BA60002E2E5C2E2E5C2E2E5C2E2E5C2E2E5C2E10
:10BA70002E5C636F6D706F6E656E74735C6C696263
:10BA80007261726965735C736F72746C6973745CF4
:10BA90006E72665F736F72746C6973742E630000EC
:10BAA00010B5040003D105A15120FBF7B9FB616873
:10BAB0000868002801D002680A6010BD2E2E5C2E96
:10BAC0002E5C2E2E5C2E2E5C2E2E5C2E2E5C636F3A
:10BAD0006D706F6E656E74735C6C696272617269B1
